:100000000C94D7010C94FF010C94FF010C94FF0198
:100010000C94FF010C94FF010C94FF010C94FF0160
:100020000C94FF010C94FF010C94FF010C94130D30
:100030000C94FF010C94FF010C94FF010C94FF0140
:100040000C94C90C0C94FF010C94FF010C94FF015B
:100050000C94FF010C94FF010C94FF010C94FF0120
:100060000C94FF010C94FF010101FF030101F70350
:100070006C00680000000000240027002A00000037
:100080000000250028002B000500893008023802F6
:100090004978681400000500380168010000175312
:1000A00044001613780016131400151020001520B4
:1000B0001000540A03E181867F3E186D830F0F0EF6
:1000C0000183866033186DC3198F1803C38E6033A4
:1000D000186DE330CF1803C39E603630CDE360CF98
:1000E0003006C79E7E3E30CDB360CF300CC6F66082
:1000F0003330D9B660CF33CFCCF66061B0DB1E6051
:10010000CF30D86CE6C061B0DB1E618F19986CC629
:10011000C063B19B0E330F0FB078C6FF7E1F1B0666
:100120001E0F53616E6474726973000A0A153A49AE
:10013000676E6F7265006D560A0A504C4541534513
:10014000205455524E204F464620004C4F572042D7
:1001500041545445525921200003053F213F1208C4
:10016000120A100A0E1C0E0C1E0C141A14161F165E
:100170001E131E1E1B1E1E1F1E3F213F3A2F3A1725
:100180003D173F213F181F02040A041F0E04040EEE
:100190001F0A1F0A0E0E1F04110E2E252E2F2A2EA7
:1001A000262929021F02081F08150E04040E150E29
:1001B00015151B151B040604040C04000000001791
:1001C000000300031F0A1F16371A1904130A153AF1
:1001D000000300000E11110E000A040A040E0400B0
:1001E00030000404040010001804031F111F121F24
:1001F000101D151711151F07041F17151D1F151D9D
:1002000001011F1F151F17151F000A0000320004EF
:100210000A110A0A0A110A040115020E11171E0515
:100220001E1F150A0E110A1F110E1F15111F0501A1
:100230000E111D1F041F111F1108100F1F041B1F7B
:1002400010101F061F1E040F0E110E1F09060E119F
:100250002E1F051A121509011F011F101F0F180F5D
:100260001F0C1F1B041B031C03191513001F110374
:100270000418111F000201022020200001020C12AC
:100280001E1F120C0C12120C121F0C1A14041E0545
:10029000242A1E1F021C141D1020201D1F081411CB
:1002A0001F101E041E1E021C0C120C3E0A040C120F
:1002B0003E1E040214160A020F120E101E0E100E1D
:1002C0001E081E120C1226281E322A26041E210089
:1002D0001F00211E040102013F213FF6E8DBCFC3CE
:1002E000B8AEA49B928A827B746E68625C57524E51
:1002F0004945413E3A3734312E2C292725232145C3
:100300000068010000172B152010204C4F41444578
:100310005200172B16201314000A4E6F205344204E
:1003200063617264206F720A6E6F204C4F414445C6
:10033000522E4845580A0A153A45786974001D201E
:10034000466C617368696E670A20206C6F61646532
:10035000722E2E2E0A0A444F4E2754205455524EC8
:10036000204F4646210000000000230026002900FF
:10037000040404040404040402020202020203034B
:100380000303030301020408102040800102040853
:1003900010200102040810200000000800020100E3
:1003A000000304070000000000000000D811112421
:1003B0001FBECFEFD8E0DEBFCDBF11E0A0E0B1E0BF
:1003C000E0ECF8E202C005900D92AC31B107D9F72C
:1003D00023E0ACE1B1E001C01D92A53BB207E1F71B
:1003E00011E0C7EDD1E004C02197FE010E9458142E
:1003F000C63DD107C9F70E94540D0C945E140C94AD
:100400000000EEE2F3E014AE12AE10927703109209
:10041000760315AE10922D0110922C0110922B0133
:100420001092B4000895CF93DF93E0915C038E2F78
:1004300090E0880F991FE0915A03F0915B03E80F59
:10044000F91F859194918F3F980729F410925303D7
:10045000DF91CF91089590935F039927880F991F9B
:10046000E0915D03F0915E03E80FF91FC591D4910F
:100470000E940102D0936103C0936003109266034F
:100480001092650381E08093540389E080936903AF
:1004900010926C0310926E031092700380915C03B3
:1004A0008F5F80935C03D4CF90E0880F991FE09119
:1004B0006203F0916303E80FF91F259134913093A3
:1004C000730320937203F9018591949190915703DE
:1004D000989F802D112480937403F9016591749184
:1004E000472F50E08417150629F020F0F9012591D7
:1004F0003491832F989F802D112480937503089544
:10050000AF92BF92CF92DF92EF92FF920F931F9321
:10051000CF93DF936C017B018B01040F151FEB015F
:100520005E01AE18BF08C017D10759F06991D60116
:10053000ED91FC910190F081E02DC6010995892B88
:1005400079F7C501DF91CF911F910F91FF90EF9047
:10055000DF90CF90BF90AF900895833081F028F462
:10056000813099F08230A9F008958730A9F0883061
:10057000C9F08430B1F4809180008F7D03C08091F8
:1005800080008F7780938000089584B58F7784BD35
:10059000089584B58F7DFBCF8091B0008F778093D5
:1005A000B00008958091B0008F7DF9CF1F93CF9355
:1005B000DF93282F30E0F901E856FC4F8491F901D0
:1005C000EC57FC4FD491F901E059FC4FC491CC2376
:1005D000A9F0162F81110E94AD02EC2FF0E0EE0F72
:1005E000FF1FE258FF4FA591B4918FB7F894EC919B
:1005F000111108C0D095DE23DC938FBFDF91CF911E
:100600001F910895DE2BF8CFCF93C82FF89460E0A8
:1006100080918B030E94D60280918C0318161CF4E3
:1006200060E00E94D602CEBD00000DB407FEFDCFF3
:100630008EB580918C0318161CF461E00E94D602DE
:100640007894CF9108950F931F93CF93809188034F
:100650008F5F809388030EE211E0C0E08C2F8064EE
:100660000E94040380E80E94040361E080918B03F0
:100670000E94D60280918C0318161CF460E00E9440
:10068000D602F80184E591919EBD00000DB407FEED
:10069000FDCF9EB58150B9F780918C0318161CF4DC
:1006A00061E00E94D602CF5F0C5A1F4FC630B1F6F0
:1006B00080E4CF911F910F910C940403CF93DF93AB
:1006C00090E0FC01EC57FC4F249180599C4FFC01B9
:1006D00084918823C9F090E0880F991FFC01EC58A1
:1006E000FF4FA591B491FC01E258FF4FC591D49101
:1006F00061110DC09FB7F8948C91209582238C9343
:100700008881282328839FBFDF91CF91089562308D
:1007100051F49FB7F8943C91822F809583238C935A
:10072000E8812E2BEFCF8FB7F894EC912E2B2C93E2
:100730008FBFEACFFF920F931F93CF93DF93CEE249
:10074000D3E0FF24FA9462E08A850E945E032A8542
:1007500030E0F901E856FC4F8491F901EC57FC4F69
:100760000491F901E059FC4F14911123E1F081113A
:100770000E94AD02E12FF0E0EE0FFF1FEA59FC4F9F
:10078000A591B491EC9189890E2369F0811113C070
:10079000219683E0C533D807B1F6DF91CF911F9141
:1007A0000F91FF90089589898F5F898B60E08A851A
:1007B0000E945E03EDCF8F3F11F4198AF7CFF98ABB
:1007C000F5CF1F93CF93DF93182FEB0161E00E94C9
:1007D0005E03209739F460E0812FDF91CF911F9164
:1007E0000C94D602CF3FD10511F461E0F5CFE12F93
:1007F000F0E0E856FC4FE491E33031F140F4E130B1
:10080000B1F0E230E1F0C038D1057CF7E4CFE73059
:1008100029F1E83059F1E430B1F78091800080622D
:1008200080938000D0938B00C0938A0004C084B56D
:10083000806884BDC7BDDF91CF911F91089584B5B5
:10084000806284BDC8BDF7CF8091800080688093AE
:100850008000D0938900C0938800EDCF8091B000D4
:1008600080688093B000C093B300E5CF8091B00062
:1008700080628093B000C093B400DDCF8E5080645E
:1008800080937C0080917A00806480937A008091CC
:100890007A0086FDFCCF80917800909179000895D0
:1008A000809152038F7149F584E10E943E04BC019E
:1008B000990F880B990B0E941B1326EE3FE34EEC19
:1008C00050E40E947F130E94EA129B017093490337
:1008D00060934803672BB9F084E080934703EAE410
:1008E000F3E080E0419151912417350718F480938B
:1008F000470308958F5F8430A9F7809152038F5F7B
:100900008093520308958FEF80934703F6CF3FB74C
:10091000F89480911E0190911F01A0912001B09147
:10092000210126B5A89B05C02F3F19F00196A11DF6
:10093000B11D3FBFBA2FA92F982F8827BC01CD0129
:10094000620F711D811D911D42E0660F771F881F88
:10095000991F4A95D1F708958F929F92AF92BF92B7
:10096000CF92DF92EF92FF924B015C010E948704CD
:100970006B017C010E9487046C197D098E099F0917
:10098000683E734081059105A8F321E0821A910821
:10099000A108B10888EEC80E83E0D81EE11CF11C46
:1009A00081149104A104B10429F7FF90EF90DF9026
:1009B000CF90BF90AF909F908F900895DC016435E9
:1009C00070F5403360F590968C919097E62F062E47
:1009D000000CFF0B242F25952595259594E52902DC
:1009E000E00DF11D1124E25DFE4F2081342F3770A0
:1009F0008230B1F4822F90E0032E02C09595879546
:100A00000A94E2F780958170811114C081E090E032
:100A100001C0880F3A95EAF7809582238083089574
:100A2000833091F71C968C9181706427609561707A
:100A30008613ECCF81E090E001C0880F3A95EAF789
:100A4000822BECCFAF92BF92CF92DF92EF92FF92C8
:100A50000F931F93CF93DF93182F062FC0E0D3E09F
:100A60008AEFD82E9EEFE92E842F8470C82E842F13
:100A70008270B82E842F8870A82E4170F42ECF5F1C
:100A80008C2F880F8F5FE80ECC2081F0402F4D0F08
:100A9000612F6C0F8CE793E00E94DE04402F4C0F17
:100AA0006D2F610F8CE793E00E94DE04BB2081F084
:100AB000402F4D1B612F6C0F8CE793E00E94DE04EA
:100AC000402F4C1B6D2F610F8CE793E00E94DE04DA
:100AD000AA2081F0402F4C0F612F6D1B8CE793E013
:100AE0000E94DE04402F4D0F612F6C1B8CE793E0BA
:100AF0000E94DE04FF2081F0402F4C1B612F6D1BF4
:100B00008CE793E00E94DE04402F4D1B612F6C1B8D
:100B10008CE793E00E94DE04CD173CF4E7FCAFCFF6
:100B2000D150D394D394ED0CAACFDF91CF911F91E4
:100B30000F91FF90EF90DF90CF90BF90AF9008950E
:100B4000EF92FF920F931F93CF93DF938C01F62EBA
:100B5000D42FE22EC0E0CE1544F46F2D6C0F4D2F34
:100B6000C8010E94DE04CF5FF6CFDF91CF911F91C5
:100B70000F91FF90EF9008952F923F924F925F92C6
:100B80006F927F928F929F92AF92BF92CF92DF929D
:100B9000EF92FF920F931F93CF93DF9300D000D07B
:100BA000CDB7DEB79C838B836A3099F4DC0118964D
:100BB0002C91189715969C9115971A968C911A97C7
:100BC000299F800D11241A968C931A9719961C92BE
:100BD000F0C06D3009F4EDC0EB81FC815184F3E588
:100BE000F5150CF4C3C0AB81BC811A96FC90BFE232
:100BF000BF150CF4BBC0EB81FC8110852481215012
:100C0000330B129FC001139F900D1124850D911D70
:100C100057FC9A95181619060CF0A8C025818F2D3F
:100C20000F2C000C990B129F800D911D112418168A
:100C300019060CF09BC0F0A1F983752C612C262EAF
:100C4000312CA12E012E000CBB08E62D062C000C29
:100C5000FF0BAB81BC8114968C91149790E0E81740
:100C6000F9070CF07EC00197E817F907A1F1289E5B
:100C70006001299ED00C389ED00C1124CE0EDF1EB0
:100C80005E96ED91FC91EC0DFD1DE4910F2DE12C94
:100C9000B62DB50DBA83AB81BC8115962C911597F5
:100CA0008E2D0E2C000C990B2817190609F00CF448
:100CB00055C0CE2ED12CE0FF26C0113071F44E2D40
:100CC0004F0D6A81CD010E94DE04F601F595E7958E
:100CD000E394010FE0CFE0E0D9CF402E4501800E34
:100CE000911C07FD9A94842D042C000C990B8815F7
:100CF00099055CF7212F442D672D8B819C810E94E3
:100D0000A0054394F0CFEB81FC8181A190A18917CC
:100D1000E1F280A3113061F44E2D4F0D6A81CF01B5
:100D20000E94DE04E981AB81BC819096EC93CDCF2B
:100D3000402E4501800E911C07FD9A94842D042CB1
:100D4000000C990B881599056CF7212F442D672D00
:100D50008B819C810E94A0054394F0CF6394710E17
:100D600074CFE981AB81BC819096EC93AB81BC815F
:100D700018962C91189714963C91149719968C916B
:100D80001997239F800D112419968C931997179604
:100D90009C911797992369F0082E000C990B44E554
:100DA00050E0239F401951091124481759070CF4AA
:100DB00001CF81E090E00F900F900F900F90DF91A6
:100DC000CF911F910F91FF90EF90DF90CF90BF9048
:100DD000AF909F908F907F906F905F904F903F90DB
:100DE0002F900895682F8CE793E00C94BC050F9327
:100DF0001F93CF93DF938C01D0E0C0E0F801EC0F9C
:100E0000FD1F6491662341F08CE793E00E94BC05CE
:100E1000892B11F02196F2CFCE01DF91CF911F9156
:100E20000F910895EF92FF920F931F93CF93DF934B
:100E30008C01D62FF42EE22EC0E0CE1544F44F2DB7
:100E40004C0F6D2FC8010E94DE04CF5FF6CFDF91FB
:100E5000CF911F910F91FF90EF9008958F929F92E5
:100E6000AF92BF92CF92DF92EF92FF920F931F93B8
:100E7000CF93DF93082FB62E942EA22E83E0F82E68
:100E8000D0E0C3E09AEFE92E1EEFCC24C394C20E4B
:100E9000DF5F1F0D2C2F220F4B2D4C1B8A2C8F0C2C
:100EA000DB2CDD1A81E02C0D602F981218C06D0F1D
:100EB0008CE793E00E941207282D4D2D6C2F600FB8
:100EC0008CE793E00E941207DC179CF417FD04C026
:100ED000C150E394E3941E0DF394F394D9CF6D1BAA
:100EE0008CE793E00E941207282D4D2D602F6C1B7C
:100EF000E7CFDF91CF911F910F91FF90EF90DF909F
:100F0000CF90BF90AF909F908F9008950F931F93B5
:100F1000CF93DF93182FD62FC42F022F242F462FC5
:100F2000682F8CE793E00E94A0054FEF400F4D0F14
:100F30002C2F612F8CE793E00E94A005202F4D2FCE
:100F4000612F8CE793E00E9412076FEF6C0F610F27
:100F5000202F4D2F8CE793E0DF91CF911F910F91C0
:100F60000C941207089590E080E00895FC01019030
:100F70000020E9F73197AF01481B590BBC018CE702
:100F800093E00C9480028F929F92AF92BF920F9346
:100F90001F93CF93DF93CDB7DEB7A1970FB6F89429
:100FA000DEBF0FBECDBF19A2423008F44AE08E0169
:100FB0000F5D1F4F842E912CB12CA12CA501940103
:100FC0000E94B912E62FB901CA01EA30F4F4E05DDB
:100FD000D801EE938D01232B242B252B79F790E05C
:100FE00080E0109719F0CD010E94B607A1960FB6C8
:100FF000F894DEBF0FBECDBFDF91CF911F910F914F
:10100000BF90AF909F908F900895E95CE1CFCF9310
:10101000DF930E94F706EC0181E191E00E94B607A0
:101020008C0F9D1FDF91CF910895EEE2F1E088EFE4
:1010300091E0DF019C011D9221503040E1F71092B8
:101040008503109286038EE393E00E94F7060E94C8
:1010500023038CB583608CBD8DB58E7F8DBD84E1FF
:1010600091E0EEEFFFE309951092820389E193E0AE
:101070000E9407080E9423030E949A038091430361
:10108000813039F062E370E080E090E00E94AC04CF
:10109000F3CF08954F925F926F927F928F929F92BB
:1010A000AF92BF92CF92DF92EF92FF920F931F9376
:1010B000CF93DF9300D000D01F92CDB7DEB7409121
:1010C000AE035091AF036091B0037091B1032FB79D
:1010D000F8948091270190912801A0912901B09165
:1010E0002A012FBF481B590B6A0B7B0B8091AD0364
:1010F00090E0B0E0A0E00091A9031091AA03209134
:10110000AB033091AC0384179507A607B70708F027
:10111000CEC0011511052105310509F4C8C02FB74E
:10112000F8948091270190912801A0912901B09114
:101130002A012FBF2091AD03820F911DA11DB11D6A
:101140008093AE039093AF03A093B003B093B10329
:1011500080919F039091A003A091A103B091A2035D
:101160000196A11DB11D80939F039093A003A093AE
:10117000A103B093A2031092A9031092AA031092A4
:10118000AB031092AC030E9487046093A503709395
:10119000A6038093A7039093A80380912F039091B7
:1011A00030032FE0289FA001299F500D11245A835E
:1011B000498385E10E943E04A981BA818A0F9B1F61
:1011C000B4E096958795BA95E1F7909330038093B4
:1011D0002F0320912E03222309F448C0609132038B
:1011E000262F30E050E040E029833A834B835C8334
:1011F000C0903303D12CF12CE12C40913603509157
:1012000037034A01B12CA12C2091340330913503CE
:101210002901712C612C8217930728F09C01481733
:10122000590708F49A0150E040E0241935094609AD
:10123000570969817A818B819C816C197D098E099E
:101240009F090E941414A501940124193509460927
:1012500057090E948712C20ED31EE41EF51EC092CB
:1012600031036C2D70E085E00E94E1030E949A0337
:1012700080914A0390914B03892B11F00E945004F6
:1012800081E00F900F900F900F900F90DF91CF9112
:101290001F910F91FF90EF90DF90CF90BF90AF9094
:1012A0009F908F907F906F905F904F900895012B4B
:1012B000022B032B09F0E6C28091450381508E3F3B
:1012C000B8F580914403813099F5809158038F5F80
:1012D0006091590387FD09C0082E000C990B70E03E
:1012E0006F5F7F4F0E943014682F6093580382E134
:1012F00093E09093B3038093B20388E48093B403A4
:101300000E9401028FEF92E090936103809360034B
:10131000109266031092650381E08093540389E084
:101320008093690310926C0310926E031092700305
:101330008091450381508E3F70F48091430381304A
:1013400009F021C385E093E09093B3038093B20347
:1013500088E48093B40380915303882331F0809113
:101360005403811102C00E94130280915403882308
:1013700009F43EC08091680381113AC080916003F6
:1013800090916103E0916503F0916603EE0FFF1FFA
:10139000E80FF91F259134912115310509F4BBC0DF
:1013A000A9015695479556954795842F20FD5EC017
:1013B0008F738093670380915703839F802D11243F
:1013C000809368031092780310927703109276034B
:1013D00081E080936A0380932B0110926B038091CC
:1013E000650390916603019690936603809365036D
:1013F00080916A03882331F0809168038111A5C030
:101400000E9401028091B403882309F4F2C18C3058
:1014100008F082C13CE0381B398381E0809384036B
:1014200010929C0310929D03409181034D8393E0A1
:10143000E92EE40E1981141B0DE2010F0E2C000C95
:10144000FF08E00EF11C07FDFA94802F002E000C1F
:10145000990B8E159F050CF061C12EE4402F63E0BF
:101460008CE793E00E94A0050F5FEFCFC901E6E093
:1014700096958795EA95E1F78F71932F96959695B6
:10148000969590514F70423099F1D0F4442309F46D
:101490003CC04130B9F1E0916503F09166033196AB
:1014A000F0936603E0936503CF01880F991FE091E5
:1014B0006003F0916103E80FF91F2591349170CF1B
:1014C000433061F0443039F720915703289F802D35
:1014D00011248093700390937103DDCF2091570303
:1014E000289F802D112480936E0390936F03D3CF98
:1014F00020915703289F802D112480936C03909393
:101500006D03C9CF0E945402C6CF8B3008F08AE029
:1015100080936903C0CF20916403211110C0109201
:10152000540380915303811103C00E94010260CFD4
:101530000E9413028091650390916603B6CF1092CA
:10154000660310926503FC01B8CF81508093680355
:1015500080917803811142C0209176033091770306
:101560002F5F3F4FC901880F991FE0917203F091DF
:101570007303E80FF91F85919491482F47704093AA
:101580007903492F4695469540937A03AC0164E070
:10159000569547956A95E1F74F7390915703499F88
:1015A000402D11244093780383FB882780F9809392
:1015B000260130937703209376038091740390E0A3
:1015C0002817390758F020917503222309F49EC08B
:1015D000821B91099093770380937603809178031F
:1015E00081508093780380916B0331E0380F309302
:1015F0006B034091670320917A03240F80915F036E
:10160000280F2093550360916E03662371F070E0FC
:10161000832F032E000C990B0E94301480916F03CE
:10162000869F200D1124209355038091550390E04F
:10163000849664E270E00E943014809355032091F8
:1016400069032093560360916C03662381F0062E94
:10165000000C770B832F032E000C990B0E94301483
:1016600080916D03869F200D112420935603609175
:1016700070036623A1F0832F330F990B70E00E9453
:101680003014CB0162E070E00E94301420917103AD
:1016900090915603289F900D1124909356034F3339
:1016A000C1F1809156038A300CF089E087FD80E01B
:1016B00080935603F894E0915503F0E0E552FD4F16
:1016C000E491E093250120917B033091560332038E
:1016D00090011124409179034203C001439F900D72
:1016E00011242091580302C0880F991F2A95E2F710
:1016F00097FF02C081589F4F880F892F881F990B31
:1017000080932C0180932D0178947CCE0E9401025D
:1017100065CF10925603CECF19827FCE5D81545093
:101720005D83105D252F41E0612F80E50E942E072B
:101730002D8142E0612F83E00E942E0781E080939B
:101740009C0380939D03009181031981101B8DE2FE
:10175000F82EF10E2EE44F2D63E08CE793E00E940B
:10176000A00583E0800F8F0D8D83482F41502EE41C
:1017700063E08CE793E00E94A0050350105D202FEA
:10178000412F60E08CE793E00E941207202F412F49
:1017900063E58CE793E00E94120741E0612F83E04C
:1017A0000E94220542E0612F80E50E9422059D8172
:1017B00094509D8344E0692F80E50E94220548E013
:1017C0006D8183E00E94220584E0809385038091EF
:1017D0008103A981A81BA15DA09386038091B20318
:1017E0009091B3030E94F7068091B40381508093D7
:1017F000B40380914A0390914B03892BD9F0B1E057
:10180000B0939C0310929D039091800385E5891B02
:10181000809385031092860380914703813009F4F9
:1018200097C090F190914603853008F0A7C08B5F78
:1018300091119FC00E9423038091820381110EC0E9
:10184000EEE2F1E088EF91E0DF019C011D92215072
:101850003040E1F710928503109286030E948704BE
:101860006093A9037093AA038093AB039093AC0396
:101870002091A5033091A603621B730B7093A40300
:101880006093A30380E0FDCC0E94010210925403F8
:1018900021E020938403E9E5F1E0E491EF5FE09338
:1018A0008003EAE5F1E0E491EF5FE09381038BE5EB
:1018B00091E090939B0380939A0310924B031092B4
:1018C0004A031092820338EA39830E944A08882327
:1018D000E1F38BE491E00E94F70660914803709178
:1018E000490390E080E04AE00E94C30786E391E06C
:1018F0000E94F706698162956F7070E090E080E069
:101900004AE00E94C3078BE291E00E94F7068091B3
:101910004303813009F48ECF4981415049834111FD
:10192000D4CF70E060E085E00E94E10383B7817F5F
:10193000846083BF83B7816083BF83B7816083BFC7
:10194000889583B78E7F83BF83B78E7F83BFBDCFDC
:1019500080919F039091A003A091A103B091A20355
:101960008F709927AA27BB270897A105B10520F4F6
:1019700087E00E94F2065ECF88E7FBCF992309F447
:1019800059CF8FE2F6CF893209F0E5CC0E941508D5
:10199000E2CC1F920F920FB60F9211242F933F9318
:1019A0008F939F93AF93BF938091270190912801CC
:1019B000A0912901B0912A0130911D0123E0230F4C
:1019C0002D3758F50196A11DB11D20931D0180935F
:1019D000270190932801A0932901B0932A018091B7
:1019E0001E0190911F01A0912001B091210101964B
:1019F000A11DB11D80931E0190931F01A093200192
:101A0000B0932101BF91AF919F918F913F912F9101
:101A10000F900FBE0F901F90189526E8230F029687
:101A2000A11DB11DD2CF1F920F920FB60F9211249C
:101A30002F936F937F938F939F9360912C016623D5
:101A400049F180911C018F5F80931C0190912501C9
:101A5000891700F120912B0181E0282720932B0189
:101A600010921C0180912601882369F08091000169
:101A700093E4899F802D1124895B809300010E944B
:101A8000241490932D0180912D01211101C080E03B
:101A90008093B4009F918F917F916F912F910F90C0
:101AA0000FBE0F901F901895789484B5826084BD06
:101AB00084B5816084BD85B5826085BD85B5816052
:101AC00085BD80916E00816080936E0010928100D0
:101AD000809181008260809381008091810081608B
:101AE000809381008091800081608093800080914C
:101AF000B10084608093B1008091B00081608093D8
:101B0000B00080917A00846080937A0080917A009E
:101B1000826080937A0080917A00816080937A005D
:101B200080917A00806880937A001092C10082E3ED
:101B30008093AD0381E090E0A0E0B0E08093A90342
:101B40009093AA03A093AB03B093AC038FEF809361
:101B50009E03E0E8F7E7259134912130304C09F0FD
:101B60006AC2E6E9F7E7E491E0938703E7E9F7E77C
:101B7000E491E0933203E8E9F7E7E491E09333037B
:101B8000E9E9F7E7859194919093350380933403C5
:101B9000EBE9F7E7859194919093370380933603AF
:101BA00087E080935903EEE9F7E7E491E093580367
:101BB000EFE9F7E7E491E0939E03E0EAF7E7859128
:101BC000949190934B0380934A03E2EAF7E785915F
:101BD000949190934D0380934C03E4EAF7E7859149
:101BE000949190934F0380934E03E6EAF7E7859133
:101BF00094919093510380935003C1E0C0932E03BE
:101C00006FEF70E085E00E94E10388E08093380385
:101C100089E08093390387E080933A0386E08093DC
:101C20003B03D4E0D0933C0382E080933D0381E109
:101C300080933E030E949A038CE39FE090934903B4
:101C400080934803D0934703C09352038BE0809363
:101C50008A038DE08093890380E180938B038EE07B
:101C600080938D038FE080938C03C0938403C09393
:101C70009C0310929D03C0938303E9E5F1E0E49196
:101C8000EF5FE0938003EAE5F1E0E491EF5FE0933A
:101C900081038BE591E090939B0380939A03CFB7E8
:101CA000F89480912201811127C0EAE7F3E0849142
:101CB000EEE8F3E09491E82FF0E0EE0FFF1FEC5810
:101CC000FF4FA591B491EC91E92321F461E08AE002
:101CD0000E94D60261E08AE00E945E038CB58061BA
:101CE0008CBD8CB580648CBD61E08DE00E945E038C
:101CF00061E08BE00E945E03809122018F5F809300
:101D00002201CFBF8CB58F7D8CBD8CB58C7F81605F
:101D10008CBD8DB581608DBD8CB58C608CBD61E056
:101D200080918A030E945E0361E0809189030E9492
:101D30005E0361E080918B030E945E0380918D03BE
:101D400018161CF461E00E945E0380918C03181643
:101D50001CF461E00E945E0380918D03181674F4F8
:101D600060E00E94D6026AE070E080E090E00E94AD
:101D7000AC0461E080918D030E94D60280918903BA
:101D8000082E000C990BFC01E059FC4FE491F0E0A7
:101D9000EE0FFF1FE258FF4F2591349130939103CE
:101DA00020939003FC01EC57FC4FE491E0939703E0
:101DB00080918A03082E000C990BFC01E059FC4F1E
:101DC000E491F0E0EE0FFF1FE258FF4F25913491B0
:101DD00030938F0320938E03FC01EC57FC4FE4916A
:101DE000E093960380918C03082E000C990BFC0164
:101DF000E059FC4FE491F0E0EE0FFF1FE258FF4F77
:101E0000259134913093930320939203FC01EC5776
:101E1000FC4FE491E093980380918B03082E000C13
:101E2000990BFC01E059FC4FE491F0E0EE0FFF1F2D
:101E3000E258FF4F259134913093950320939403FA
:101E4000FC01EC57FC4FE491E093990381E20E947E
:101E5000040384E10E9404038091870387FF03C089
:101E60008FE7809387038091870380680E94040333
:101E700080E20E9404038CE00E9404030E9423037A
:101E800081E08093570384E080937B0380E790E0B8
:101E9000909363038093620380E00E94540261E0A8
:101EA00070E083E00E94E1038091B100887F81604F
:101EB0008093B100F89410928000109281001092EB
:101EC00085001092840088E191E0909389008093CE
:101ED00088008091810088608093810080918100DA
:101EE00081608093810080916F00826080936F0099
:101EF000789480914A0390914B03892B11F00E94B2
:101F0000500480914403813009F4C2C0809147039A
:101F1000882309F4BDC00E94010288E890E09093F4
:101F2000610380936003109266031092650381E061
:101F30008093540389E08093690310926C0310929C
:101F40006E031092700380919E03882309F4B3C13D
:101F500081E0809384031092830310928203109295
:101F6000460380939C0380939D03C1E0D1E09FEFE3
:101F7000892E92E0992E1CE009E00E944A088823ED
:101F8000E1F3E2E2F1E08491E2EBF0E0A490E3EB34
:101F9000F0E0C4900A2C000CBB081A141B040CF0CF
:101FA000CDC01C140CF0CAC070919C03EC2DE13321
:101FB0000CF0E0E39A2DF5E5AF16B1040CF094E5D2
:101FC000F090880387E0A80EB11C83E0B594A79435
:101FD0008A95E1F760E02EE231E081E044EB50E0E9
:101FE000CE2EEE0FDD086C151D040CF0A7C0FA0113
:101FF000E490713009F04FC0D9016894772477F8E4
:10200000672C6E2019F06C90682A6C92769429F4F3
:102010003196E4906894772477F811966A2E621AC4
:10202000691670F3880F19F42C5A3F4F81E06F5FE7
:102030004A0D5B1DD8CF9CE3909387031092320327
:102040008093330380E293E09093350380933403CD
:1020500084ED93E0909337038093360387E0809379
:102060005903809358038CEA9DE090934B0380932F
:102070004A038EED9DE090934D0380934C0384E7DB
:102080009EE090934F0380934E038CE39FE0B1CD8D
:102090001092580358CF711119C0682E6094D9015D
:1020A0006894772477F8572C5E2019F05C905620BE
:1020B0005C92769429F43196E4906894772477F8CA
:1020C00011965A2E521A591670F3ACCFD901689452
:1020D000772477F87330F9F4482E40946894662496
:1020E00067F8512C7E2C762039F07C903F2C3524DB
:1020F00030FE0FC0782A7C92669429F43196E490E1
:102100006894662467F853941196591658F3FC2680
:1021100089CF7420F0CF672C6E2019F06C90682660
:102120006C92769429F43196E4906894772477F849
:1021300011966A2E621A691670F374CF1092850395
:102140001093860382E291E00E94F706809180035B
:10215000982F990F990F891B8D5A80938503809131
:102160008103982F990F990F891B835D80938603B4
:1021700080919F0384FF78C08EEA90E00E94070858
:1021800080918003982F990F990F891B8D5A809306
:102190008503809186038F5F809386038091580327
:1021A000882309F464C086EA90E00E9407088091C1
:1021B0008003982F990F990F891B8D5A809385035F
:1021C000809186038F5F809386038EE990E00E9462
:1021D000070880914403813031F5809158038F5F67
:1021E0006091590387FD09C0082E000C990B70E01F
:1021F0006F5F7F4F0E943014682F609358030E94D6
:102200000102909261038092600310926603109223
:102210006503D09354030093690310926C031092EA
:102220006E031092700380914303813019F1809105
:102230009E03482F50E070E060E0C0909F03D09074
:10224000A003E090A103F090A203C416D506E60611
:10225000F70610F08F3F71F480914503813009F04B
:102260008CCE0E94150887CE8AEA90E087CF82EA5A
:1022700090E09BCF8FEF80939E030E94010210920B
:1022800054030E94010286E990E0909361038093D9
:102290006003109266031092650381E080935403FB
:1022A00099E09093690310926C0310926E03109260
:1022B000700380934603C0904803D0904903C094B4
:1022C000D094F12CE12C0E9487044B015C010E9408
:1022D0008704A5019401209530954095509560950F
:1022E0007095809590950E9414149B01AC01C701D4
:1022F000B6010E9414144B015C01C0902F03D090D2
:102300003003F12CE12C0E9487046C0D7D1D8E1D85
:102310009F1D680D791D8A1D9B1D61157105810525
:10232000910511F00E947E121092460384E1C82E9E
:10233000D12CE12CF12CC0E0D0E00E944A08882387
:1023400091F160919F037091A0038091A1039091FE
:10235000A203A70196010E94B912672B682B692B73
:1023600051F480912301909124019F5F9093240167
:102370008F5F8093230160912301660F6C5F8091D2
:102380002401880F22E042E08C5F0E9486072CE245
:1023900048E162E082E00E9486072AE246E163E0CB
:1023A00083E00E948607209741F20E940000C5CF7B
:1023B00010927F0310927E0389E091E090937D0359
:1023C00080937C0308958F929F92AF92BF92CF9299
:1023D000DF92EF92FF92CF93DF93EC0168817981D6
:1023E0008A819B81611571058105910521F464E263
:1023F00079ED8BE597E02DE133EF41E050E00E946D
:10240000871249015A019B01AC01A7EAB1E40E947D
:10241000A6126B017C01ACEEB4EFA50194010E9401
:10242000B412C60ED71EE81EF91EF7FE06C081E0E4
:10243000C81AD108E10880E8F80AC882D982EA827D
:10244000FB82C701B6019F77DF91CF91FF90EF909C
:10245000DF90CF90BF90AF909F908F9008958F9214
:102460009F92AF92BF92CF92DF92EF92FF926091D4
:1024700001017091020180910301909104016115A5
:1024800071058105910521F464E279ED8BE597E012
:102490002DE133EF41E050E00E94871249015A01DB
:1024A0009B01AC01A7EAB1E40E94A6126B017C017A
:1024B000ACEEB4EFA50194010E94B412C60ED71E73
:1024C000E81EF91EF7FE06C081E0C81AD108E1082F
:1024D00080E8F80AC0920101D0920201E092030163
:1024E000F0920401C701B6019F77FF90EF90DF9053
:1024F000CF90BF90AF909F908F900895609301010F
:102500007093020180930301909304010895052EB6
:1025100097FB1EF400940E949E1257FD07D00E9464
:10252000B91207FC03D04EF40C949E1250954095BE
:10253000309521953F4F4F4F5F4F0895909580956F
:10254000709561957F4F8F4F9F4F08950E94DB12CA
:10255000A59F900DB49F900DA49F800D911D1124F7
:102560000895B7FF0C94A6120E94A612821B930B2B
:102570000895A1E21A2EAA1BBB1BFD010DC0AA1FC4
:10258000BB1FEE1FFF1FA217B307E407F50720F0DC
:10259000A21BB30BE40BF50B661F771F881F991F57
:1025A0001A9469F760957095809590959B01AC01A0
:1025B000BD01CF010895A29FB001B39FC001A39FA9
:1025C000700D811D1124911DB29F700D811D11246C
:1025D000911D08950E945E1388F09F5798F0B92FBF
:1025E0009927B751B0F0E1F0660F771F881F991F48
:1025F0001AF0BA95C9F714C0B13091F00E9478135F
:10260000B1E008950C947813672F782F8827B85F6E
:1026100039F0B93FCCF3869577956795B395D9F79F
:102620003EF490958095709561957F4F8F4F9F4FA9
:102630000895E89409C097FB3EF4909580957095B5
:1026400061957F4F8F4F9F4F9923A9F0F92F96E9FE
:10265000BB279395F695879577956795B795F11173
:10266000F8CFFAF4BB0F11F460FF1BC06F5F7F4F10
:102670008F4F9F4F16C0882311F096E911C0772322
:1026800021F09EE8872F762F05C0662371F096E82B
:10269000862F70E060E02AF09A95660F771F881FFA
:1026A000DAF7880F9695879597F9089557FD905812
:1026B000440F551F59F05F3F71F04795880F97FB06
:1026C000991F61F09F3F79F08795089512161306C0
:1026D0001406551FF2CF4695F1DF08C016161706EF
:1026E0001806991FF1CF8695710561050894089524
:1026F000E894BB2766277727CB0197F908950E94B6
:1027000092130C9403140E94F51338F00E94FC13EA
:1027100020F0952311F00C94EC130C94F213112477
:102720000C9479130E94561370F3959FC1F3950F83
:1027300050E0551F629FF001729FBB27F00DB11D45
:10274000639FAA27F00DB11DAA1F649F6627B00DD5
:10275000A11D661F829F2227B00DA11D621F739FBE
:10276000B00DA11D621F839FA00D611D221F749FCC
:102770003327A00D611D231F849F600D211D822F13
:10278000762F6A2F11249F5750409AF0F1F088233A
:102790004AF0EE0FFF1FBB1F661F771F881F915067
:1027A0005040A9F79E3F510580F00C94EC130C9417
:1027B00079135F3FE4F3983ED4F386957795679558
:1027C000B795F795E7959F5FC1F7FE2B880F911D91
:1027D0009695879597F9089597F99F6780E870E037
:1027E00060E008959FEF80EC089500240A94161687
:1027F000170618060906089500240A9412161306EF
:10280000140605060895092E0394000C11F488237C
:1028100052F0BB0F40F4BF2B11F460FF04C06F5F98
:102820007F4F8F4F9F4F0895DB018F939F930E949F
:10283000A612BF91AF91A29F800D911DA39F900DF5
:10284000B29F900D11240895991B79E004C0991F3F
:10285000961708F0961B881F7A95C9F780950895FA
:1028600097FB072E16F4009407D077FD09D00E943D
:10287000441407FC05D03EF4909581959F4F089530
:10288000709561957F4F0895AA1BBB1B51E107C04E
:10289000AA1FBB1FA617B70710F0A61BB70B881FF0
:1028A000991F5A95A9F780959095BC01CD0108957F
:1028B000EE0FFF1F0590F491E02D0994F894FFCFDF
:1028C000010100000000000000BC058002B307B257
:0C28D000070D0A004C4F41444552000027
:00000001FF
