:100000000C94D7010C94FF010C94FF010C94FF0198
:100010000C94FF010C94FF010C94FF010C94FF0160
:100020000C94FF010C94FF010C94FF010C94160D2D
:100030000C94FF010C94FF010C94FF010C94FF0140
:100040000C94CC0C0C94FF010C94FF010C94FF0158
:100050000C94FF010C94FF010C94FF010C94FF0120
:100060000C94FF010C94FF010101FF030101F70350
:100070006C00680000000000240027002A00000037
:100080000000250028002B000500893008023802F6
:100090004978681400000500380168010000175312
:1000A00044001613780016131400151020001520B4
:1000B0001000540A03E181867F3E186D830F0F0EF6
:1000C0000183866033186DC3198F1803C38E6033A4
:1000D000186DE330CF1803C39E603630CDE360CF98
:1000E0003006C79E7E3E30CDB360CF300CC6F66082
:1000F0003330D9B660CF33CFCCF66061B0DB1E6051
:10010000CF30D86CE6C061B0DB1E618F19986CC629
:10011000C063B19B0E330F0FB078C6FF7E1F1B0666
:100120001E0F53616E6474726973000A0A153A49AE
:10013000676E6F7265006D560A0A504C4541534513
:10014000205455524E204F464620004C4F572042D7
:1001500041545445525921200003053F213F1208C4
:10016000120A100A0E1C0E0C1E0C141A14161F165E
:100170001E131E1E1B1E1E1F1E3F213F3A2F3A1725
:100180003D173F213F181F02040A041F0E04040EEE
:100190001F0A1F0A0E0E1F04110E2E252E2F2A2EA7
:1001A000262929021F02081F08150E04040E150E29
:1001B00015151B151B040604040C04000000001791
:1001C000000300031F0A1F16371A1904130A153AF1
:1001D000000300000E11110E000A040A040E0400B0
:1001E00030000404040010001804031F111F121F24
:1001F000101D151711151F07041F17151D1F151D9D
:1002000001011F1F151F17151F000A0000320004EF
:100210000A110A0A0A110A040115020E11171E0515
:100220001E1F150A0E110A1F110E1F15111F0501A1
:100230000E111D1F041F111F1108100F1F041B1F7B
:1002400010101F061F1E040F0E110E1F09060E119F
:100250002E1F051A121509011F011F101F0F180F5D
:100260001F0C1F1B041B031C03191513001F110374
:100270000418111F000201022020200001020C12AC
:100280001E1F120C0C12120C121F0C1A14041E0545
:10029000242A1E1F021C141D1020201D1F081411CB
:1002A0001F101E041E1E021C0C120C3E0A040C120F
:1002B0003E1E040214160A020F120E101E0E100E1D
:1002C0001E081E120C1226281E322A26041E210089
:1002D0001F00211E040102013F213FF6E8DBCFC3CE
:1002E000B8AEA49B928A827B746E68625C57524E51
:1002F0004945413E3A3734312E2C292725232145C3
:100300000068010000172B152010204C4F41444578
:100310005200172B16201314000A4E6F205344204E
:1003200063617264206F720A6E6F204C4F414445C6
:10033000522E4845580A0A153A45786974001D201E
:10034000466C617368696E670A20206C6F61646532
:10035000722E2E2E0A0A444F4E2754205455524EC8
:10036000204F4646210000000000230026002900FF
:10037000040404040404040402020202020203034B
:100380000303030301020408102040800102040853
:1003900010200102040810200000000800020100E3
:1003A000000304070000000000000000C512112433
:1003B0001FBECFEFD8E0DEBFCDBF11E0A0E0B1E0BF
:1003C000EEE5FBE202C005900D92AC31B107D9F722
:1003D00025E0ACE1B1E001C01D92A73DB207E1F715
:1003E00011E0C7EDD1E004C02197FE010E94A715DE
:1003F000C63DD107C9F70E94570D0C94AD150C945A
:100400000000E0E5F5E014AE12AE109299051092EE
:10041000980515AE10924F0310924E0310924D03A3
:100420001092B4000895CF93DF93E0917E058E2F54
:1004300090E0880F991FE0917C05F0917D05E80F11
:10044000F91F859194918F3F980729F410927505B3
:10045000DF91CF910895909381059927880F991F77
:10046000E0917F05F0918005E80FF91FC591D491C7
:100470000E940102D0938305C093820510928805E3
:100480001092870581E08093760589E080938B0543
:1004900010928E05109290051092920580917E0523
:1004A0008F5F80937E05D4CF90E0880F991FE091F5
:1004B0008405F0918505E80FF91F2591349130935B
:1004C000950520939405F901859194919091790572
:1004D000989F802D112480939605F9016591749160
:1004E000472F50E08417150629F020F0F9012591D7
:1004F0003491832F989F802D112480939705089520
:10050000AF92BF92CF92DF92EF92FF920F931F9321
:10051000CF93DF936C017B018B01040F151FEB015F
:100520005E01AE18BF08C017D10759F06991D60116
:10053000ED91FC910190F081E02DC6010995892B88
:1005400079F7C501DF91CF911F910F91FF90EF9047
:10055000DF90CF90BF90AF900895833081F028F462
:10056000813099F08230A9F008958730A9F0883061
:10057000C9F08430B1F4809180008F7D03C08091F8
:1005800080008F7780938000089584B58F7784BD35
:10059000089584B58F7DFBCF8091B0008F778093D5
:1005A000B00008958091B0008F7DF9CF1F93CF9355
:1005B000DF93282F30E0F901E856FC4F8491F901D0
:1005C000EC57FC4FD491F901E059FC4FC491CC2376
:1005D000A9F0162F81110E94AD02EC2FF0E0EE0F72
:1005E000FF1FE258FF4FA591B4918FB7F894EC919B
:1005F000111108C0D095DE23DC938FBFDF91CF911E
:100600001F910895DE2BF8CFCF93C82FF89460E0A8
:100610008091AD050E94D6028091AE0518161CF49B
:1006200060E00E94D602CEBD00000DB407FEFDCFF3
:100630008EB58091AE0518161CF461E00E94D602BA
:100640007894CF9108950F931F93CF938091AA052B
:100650008F5F8093AA0500E513E0C0E08C2F8064D3
:100660000E94040380E80E94040361E08091AD05CC
:100670000E94D6028091AE0518161CF460E00E941C
:10068000D602F80184E591919EBD00000DB407FEED
:10069000FDCF9EB58150B9F78091AE0518161CF4B8
:1006A00061E00E94D602CF5F0C5A1F4FC630B1F6F0
:1006B00080E4CF911F910F910C940403CF93DF93AB
:1006C00090E0FC01EC57FC4F249180599C4FFC01B9
:1006D00084918823C9F090E0880F991FFC01EC58A1
:1006E000FF4FA591B491FC01E258FF4FC591D49101
:1006F00061110DC09FB7F8948C91209582238C9343
:100700008881282328839FBFDF91CF91089562308D
:1007100051F49FB7F8943C91822F809583238C935A
:10072000E8812E2BEFCF8FB7F894EC912E2B2C93E2
:100730008FBFEACFFF920F931F93CF93DF93C0E554
:10074000D5E0FF24FA9462E08A850E945E032A8540
:1007500030E0F901E856FC4F8491F901EC57FC4F69
:100760000491F901E059FC4F14911123E1F081113A
:100770000E94AD02E12FF0E0EE0FFF1FEA59FC4F9F
:10078000A591B491EC9189890E2369F0811113C070
:10079000219685E0C735D807B1F6DF91CF911F913B
:1007A0000F91FF90089589898F5F898B60E08A851A
:1007B0000E945E03EDCF8F3F11F4198AF7CFF98ABB
:1007C000F5CF1F93CF93DF93182FEB0161E00E94C9
:1007D0005E03209739F460E0812FDF91CF911F9164
:1007E0000C94D602CF3FD10511F461E0F5CFE12F93
:1007F000F0E0E856FC4FE491E33031F140F4E130B1
:10080000B1F0E230E1F0C038D1057CF7E4CFE73059
:1008100029F1E83059F1E430B1F78091800080622D
:1008200080938000D0938B00C0938A0004C084B56D
:10083000806884BDC7BDDF91CF911F91089584B5B5
:10084000806284BDC8BDF7CF8091800080688093AE
:100850008000D0938900C0938800EDCF8091B000D4
:1008600080688093B000C093B300E5CF8091B00062
:1008700080628093B000C093B400DDCF8E5080645E
:1008800080937C0080917A00806480937A008091CC
:100890007A0086FDFCCF80917800909179000895D0
:1008A000809174058F7149F584E10E943E04BC017A
:1008B000990F880B990B0E946A1426EE3FE34EECC9
:1008C00050E40E94CE140E9439149B0170936B0572
:1008D00060936A05672BB9F084E080936905ECE6C4
:1008E000F5E080E0419151912417350718F4809389
:1008F000690508958F5F8430A9F7809174058F5F33
:100900008093740508958FEF80936905F6CF3FB704
:10091000F89480911E0190911F01A0912001B09147
:10092000210126B5A89B05C02F3F19F00196A11DF6
:10093000B11D3FBFBA2FA92F982F8827BC01CD0129
:10094000620F711D811D911D42E0660F771F881F88
:10095000991F4A95D1F708958F929F92AF92BF92B7
:10096000CF92DF92EF92FF924B015C010E948704CD
:100970006B017C010E9487046C197D098E099F0917
:10098000683E734081059105A8F321E0821A910821
:10099000A108B10888EEC80E83E0D81EE11CF11C46
:1009A00081149104A104B10429F7FF90EF90DF9026
:1009B000CF90BF90AF909F908F900895DC016435E9
:1009C00070F5403360F590968C919097E62F062E47
:1009D000000CFF0B242F25952595259594E52902DC
:1009E000E00DF11D1124E05BFC4F2081342F3770A6
:1009F0008230B1F4822F90E0032E02C09595879546
:100A00000A94E2F780958170811114C081E090E032
:100A100001C0880F3A95EAF7809582238083089574
:100A2000833091F71C968C9181706427609561707A
:100A30008613ECCF81E090E001C0880F3A95EAF789
:100A4000822BECCFAF92BF92CF92DF92EF92FF92C8
:100A50000F931F93CF93DF93182F062FC0E0D3E09F
:100A60008AEFD82E9EEFE92E842F8470C82E842F13
:100A70008270B82E842F8870A82E4170F42ECF5F1C
:100A80008C2F880F8F5FE80ECC2081F0402F4D0F08
:100A9000612F6C0F8EE995E00E94DE04402F4C0F11
:100AA0006D2F610F8EE995E00E94DE04BB2081F07E
:100AB000402F4D1B612F6C0F8EE995E00E94DE04E4
:100AC000402F4C1B6D2F610F8EE995E00E94DE04D4
:100AD000AA2081F0402F4C0F612F6D1B8EE995E00D
:100AE0000E94DE04402F4D0F612F6C1B8EE995E0B4
:100AF0000E94DE04FF2081F0402F4C1B612F6D1BF4
:100B00008EE995E00E94DE04402F4D1B612F6C1B87
:100B10008EE995E00E94DE04CD173CF4E7FCAFCFF0
:100B2000D150D394D394ED0CAACFDF91CF911F91E4
:100B30000F91FF90EF90DF90CF90BF90AF9008950E
:100B4000EF92FF920F931F93CF93DF938C01F62EBA
:100B5000D42FE22EC0E0CE1544F46F2D6C0F4D2F34
:100B6000C8010E94DE04CF5FF6CFDF91CF911F91C5
:100B70000F91FF90EF9008952F923F924F925F92C6
:100B80006F927F928F929F92AF92BF92CF92DF929D
:100B9000EF92FF920F931F93CF93DF9300D000D07B
:100BA000CDB7DEB79C838B836A3099F4DC0118964D
:100BB0002C91189715969C9115971A968C911A97C7
:100BC000299F800D11241A968C931A9719961C92BE
:100BD000F0C06D3009F4EDC0EB81FC815184F3E588
:100BE000F5150CF4C3C0AB81BC811A96FC90BFE232
:100BF000BF150CF4BBC0EB81FC8110852481215012
:100C0000330B129FC001139F900D1124850D911D70
:100C100057FC9A95181619060CF0A8C025818F2D3F
:100C20000F2C000C990B129F800D911D112418168A
:100C300019060CF09BC0F0A1F983752C612C262EAF
:100C4000312CA12E012E000CBB08E62D062C000C29
:100C5000FF0BAB81BC8114968C91149790E0E81740
:100C6000F9070CF07EC00197E817F907A1F1289E5B
:100C70006001299ED00C389ED00C1124CE0EDF1EB0
:100C80005E96ED91FC91EC0DFD1DE4910F2DE12C94
:100C9000B62DB50DBA83AB81BC8115962C911597F5
:100CA0008E2D0E2C000C990B2817190609F00CF448
:100CB00055C0CE2ED12CE0FF26C0113071F44E2D40
:100CC0004F0D6A81CD010E94DE04F601F595E7958E
:100CD000E394010FE0CFE0E0D9CF402E4501800E34
:100CE000911C07FD9A94842D042C000C990B8815F7
:100CF00099055CF7212F442D672D8B819C810E94E3
:100D0000A0054394F0CFEB81FC8181A190A18917CC
:100D1000E1F280A3113061F44E2D4F0D6A81CF01B5
:100D20000E94DE04E981AB81BC819096EC93CDCF2B
:100D3000402E4501800E911C07FD9A94842D042CB1
:100D4000000C990B881599056CF7212F442D672D00
:100D50008B819C810E94A0054394F0CF6394710E17
:100D600074CFE981AB81BC819096EC93AB81BC815F
:100D700018962C91189714963C91149719968C916B
:100D80001997239F800D112419968C931997179604
:100D90009C911797992369F0082E000C990B44E554
:100DA00050E0239F401951091124481759070CF4AA
:100DB00001CF81E090E00F900F900F900F90DF91A6
:100DC000CF911F910F91FF90EF90DF90CF90BF9048
:100DD000AF909F908F907F906F905F904F903F90DB
:100DE0002F900895682F8EE995E00C94BC050F9321
:100DF0001F93CF93DF938C01D0E0C0E0F801EC0F9C
:100E0000FD1F6491662341F08EE995E00E94BC05C8
:100E1000892B11F02196F2CFCE01DF91CF911F9156
:100E20000F910895EF92FF920F931F93CF93DF934B
:100E30008C01D62FF42EE22EC0E0CE1544F44F2DB7
:100E40004C0F6D2FC8010E94DE04CF5FF6CFDF91FB
:100E5000CF911F910F91FF90EF9008958F929F92E5
:100E6000AF92BF92CF92DF92EF92FF920F931F93B8
:100E7000CF93DF93082FB62E942EA22E83E0F82E68
:100E8000D0E0C3E09AEFE92E1EEFCC24C394C20E4B
:100E9000DF5F1F0D2C2F220F4B2D4C1B8A2C8F0C2C
:100EA000DB2CDD1A81E02C0D602F981218C06D0F1D
:100EB0008EE995E00E941207282D4D2D6C2F600FB2
:100EC0008EE995E00E941207DC179CF417FD04C020
:100ED000C150E394E3941E0DF394F394D9CF6D1BAA
:100EE0008EE995E00E941207282D4D2D602F6C1B76
:100EF000E7CFDF91CF911F910F91FF90EF90DF909F
:100F0000CF90BF90AF909F908F9008950F931F93B5
:100F1000CF93DF930196EC01CC0FDD1F6F5F7F4F06
:100F20008B01000F111F22E0402F6C2F8EE995E0FE
:100F30000E94A00541E0400F22E06C2F8EE995E071
:100F40000E94A00522E0402F6C2F8EE995E00E94C0
:100F500012076C2F6F5F22E0402F8EE995E0DF9142
:100F6000CF911F910F910C941207089590E080E0AB
:100F70000895FC0101900020E9F73197AF01481B6B
:100F8000590BBC018EE995E00C9480028F929F92E0
:100F9000AF92BF920F931F93CF93DF93CDB7DEB77E
:100FA000A1970FB6F894DEBF0FBECDBF19A2423095
:100FB00008F44AE08E010F5D1F4F842E912CB12C56
:100FC000A12CA50194010E940814E62FB901CA01C1
:100FD000EA30F4F4E05DD801EE938D01232B242B4D
:100FE000252B79F790E080E0109719F0CD010E9451
:100FF000B907A1960FB6F894DEBF0FBECDBFDF9143
:10100000CF911F910F91BF90AF909F908F900895B7
:10101000E95CE1CFCF93DF930E94F706EC0181E119
:1010200091E00E94B9078C0F9D1FDF91CF91089529
:10103000E0E5F3E088EF91E0DF019C011D92215093
:101040003040E1F71092A7051092A8058EE393E0D7
:101050000E94F7060E9423038CB583608CBD8DB57A
:101060008E7F8DBD84E191E0EEEFFFE30995109254
:10107000A40589E193E00E940A080E9423030E94CC
:101080009A0380916505813039F062E370E080E079
:1010900090E00E94AC04F3CF08954F925F926F925C
:1010A0007F928F929F92AF92BF92CF92DF92EF92F8
:1010B000FF920F931F93CF93DF9300D000D01F9226
:1010C000CDB7DEB74091D0055091D1056091D205E2
:1010D0007091D3052FB7F8948091490390914A03FA
:1010E000A0914B03B0914C032FBF481B590B6A0BC7
:1010F0007B0B8091CF0590E0B0E0A0E00091CB05A4
:101100001091CC052091CD053091CE05841795071F
:10111000A607B70708F0CEC0011511052105310556
:1011200009F4C8C02FB7F8948091490390914A03FD
:10113000A0914B03B0914C032FBF2091CF05820F9C
:10114000911DA11DB11D8093D0059093D105A09351
:10115000D205B093D3058091C1059091C205A091AD
:10116000C305B091C4050196A11DB11D8093C105B1
:101170009093C205A093C305B093C4051092CB050C
:101180001092CC051092CD051092CE050E948704D6
:101190006093C7057093C8058093C9059093CA05ED
:1011A00080915105909152052FE0289FA001299F21
:1011B000500D11245A83498385E10E943E04A98180
:1011C000BA818A0F9B1FB4E096958795BA95E1F78F
:1011D000909352058093510520915005222309F4E4
:1011E00048C060915405262F30E050E040E029834C
:1011F0003A834B835C83C0905505D12CF12CE12CB4
:1012000040915805509159054A01B12CA12C2091CB
:101210005605309157052901712C612C82179307CF
:1012200028F09C014817590708F49A0150E040E063
:10123000241935094609570969817A818B819C8176
:101240006C197D098E099F090E946315A5019401FF
:1012500024193509460957090E94D613C20ED31E18
:10126000E41EF51EC09253056C2D70E085E00E94CF
:10127000E1030E949A0380916C0590916D05892B82
:1012800011F00E94500481E00F900F900F900F908A
:101290000F90DF91CF911F910F91FF90EF90DF9012
:1012A000CF90BF90AF909F908F907F906F905F9006
:1012B0004F900895012B022B032B09F0E6C2809179
:1012C000670581508E3FB8F580916605813099F5AC
:1012D00080917A058F5F60917B0587FD09C0082E9C
:1012E000000C990B70E06F5F7F4F0E947F15682F95
:1012F00060937A0582E193E09093D5058093D405BD
:1013000088E48093D6050E9401028FEF92E09093CB
:10131000830580938205109288051092870581E0ED
:101320008093760589E080938B0510928E0510924C
:101330009005109292058091670581508E3F70F460
:1013400080916505813009F021C385E093E0909399
:10135000D5058093D40588E48093D60580917505E2
:10136000882331F080917605811102C00E9413021A
:1013700080917605882309F43EC080918A05811109
:101380003AC08091820590918305E0918705F091A4
:101390008805EE0FFF1FE80FF91F259134912115E5
:1013A000310509F4BBC0A901569547955695479557
:1013B000842F20FD5EC08F7380938905809179050D
:1013C000839F802D112480938A0510929A05109294
:1013D00099051092980581E080938C0580934D03C8
:1013E00010928D05809187059091880501969093C4
:1013F00088058093870580918C05882331F0809142
:101400008A058111A5C00E9401028091D60588231A
:1014100009F4F2C18C3008F082C13CE0381B3983FA
:1014200081E08093A6051092BE051092BF05409101
:10143000A3054D8393E0E92EE40E1981141B0DE200
:10144000010F0E2C000CFF08E00EF11C07FDFA94B2
:10145000802F002E000C990B8E159F050CF061C19A
:101460002EE4402F63E08EE995E00E94A0050F5F17
:10147000EFCFC901E6E096958795EA95E1F78F7180
:10148000932F96959695969590514F70423099F17D
:10149000D0F4442309F43CC04130B9F1E091870510
:1014A000F09188053196F0938805E0938705CF0188
:1014B000880F991FE0918205F0918305E80FF91FCD
:1014C0002591349170CF433061F0443039F7209149
:1014D0007905289F802D1124809392059093930580
:1014E000DDCF20917905289F802D112480939005D0
:1014F00090939105D3CF20917905289F802D1124B9
:1015000080938E0590938F05C9CF0E945402C6CF59
:101510008B3008F08AE080938B05C0CF2091860540
:10152000211110C01092760580917505811103C0BC
:101530000E94010260CF0E94130280918705909162
:101540008805B6CF1092880510928705FC01B8CFA8
:10155000815080938A0580919A05811142C0209123
:101560009805309199052F5F3F4FC901880F991F4A
:10157000E0919405F0919505E80FF91F85919491FC
:10158000482F477040939B05492F469546954093B9
:101590009C05AC0164E0569547956A95E1F74F7359
:1015A00090917905499F402D112440939A0583FB22
:1015B000882780F9809348033093990520939805F4
:1015C0008091960590E02817390758F020919705EB
:1015D000222309F49EC0821B910990939905809360
:1015E000980580919A05815080939A0580918D0588
:1015F00031E0380F30938D054091890520919C058D
:10160000240F80918105280F209377056091900524
:10161000662371F070E0832F032E000C990B0E945B
:101620007F1580919105869F200D112420937705C9
:101630008091770590E0849664E270E00E947F15C7
:101640008093770520918B052093780560918E0516
:10165000662381F0062E000C770B832F032E000CDF
:10166000990B0E947F1580918F05869F200D112474
:1016700020937805609192056623A1F0832F330FA4
:10168000990B70E00E947F15CB0162E070E00E9430
:101690007F152091930590917805289F900D112436
:1016A000909378054F33C1F1809178058A300CF022
:1016B00089E087FD80E080937805F894E0917705D4
:1016C000F0E0E552FD4FE491E093470320919D0542
:1016D0003091780532039001112440919B0542031B
:1016E000C001439F900D112420917A0502C0880FFC
:1016F000991F2A95E2F797FF02C081589F4F880FE4
:10170000892F881F990B80934E0380934F03789401
:101710007CCE0E94010265CF10927805CECF19824F
:101720007FCE5D8154505D83105D252F41E0612F98
:1017300080E50E942E072D8142E0612F83E00E9408
:101740002E0781E08093BE058093BF050091A3051D
:101750001981101B8DE2F82EF10E2EE44F2D63E05F
:101760008EE995E00E94A00583E0800F8F0D8D83A8
:10177000482F41502EE463E08EE995E00E94A005D9
:101780000350105D202F412F60E08EE995E00E940C
:101790001207202F412F63E58EE995E00E94120782
:1017A00041E0612F83E00E94220542E0612F80E545
:1017B0000E9422059D8194509D8344E0692F80E51D
:1017C0000E94220548E06D8183E00E94220584E0AA
:1017D0008093A7058091A305A981A81BA15DA09373
:1017E000A8058091D4059091D5050E94F7068091B7
:1017F000D60581508093D60580916C0590916D053A
:10180000892BD9F0B1E0B093BE051092BF0590913D
:10181000A20585E5891B8093A7051092A8058091F4
:101820006905813009F497C090F190916805853081
:1018300008F0A7C08B5F91119FC00E942303809185
:10184000A40581110EC0E0E5F3E088EF91E0DF012F
:101850009C011D9221503040E1F71092A705109293
:10186000A8050E9487046093CB057093CC058093F4
:10187000CD059093CE052091C7053091C805621B18
:10188000730B7093C6056093C50580E0FDCC0E9484
:1018900001021092760521E02093A605E9E5F1E02A
:1018A000E491EF5FE093A205EAE5F1E0E491EF5FF8
:1018B000E093A3058BE591E09093BD058093BC0573
:1018C00010926D0510926C051092A40538EA3983C8
:1018D0000E944D088823E1F38BE491E00E94F70613
:1018E00060916A0570916B0590E080E04AE00E948B
:1018F000C60786E391E00E94F706698162956F70E2
:1019000070E090E080E04AE00E94C6078BE291E040
:101910000E94F70680916505813009F48ECF4981D8
:10192000415049834111D4CF70E060E085E00E94CE
:10193000E10383B7817F846083BF83B7816083BF06
:1019400083B7816083BF889583B78E7F83BF83B75A
:101950008E7F83BFBDCF8091C1059091C205A091BC
:10196000C305B091C4058F709927AA27BB27089794
:10197000A105B10520F487E00E94F2065ECF88E75A
:10198000FBCF992309F459CF8FE2F6CF893209F0C2
:10199000E5CC0E941808E2CC1F920F920FB60F926E
:1019A00011242F933F938F939F93AF93BF93809175
:1019B000490390914A03A0914B03B0914C0330919D
:1019C0001D0123E0230F2D3758F50196A11DB11DF0
:1019D00020931D018093490390934A03A0934B03E6
:1019E000B0934C0380911E0190911F01A0912001A2
:1019F000B09121010196A11DB11D80931E0190930C
:101A00001F01A0932001B0932101BF91AF919F913D
:101A10008F913F912F910F900FBE0F901F901895AF
:101A200026E8230F0296A11DB11DD2CF1F920F925F
:101A30000FB60F9211242F936F937F938F939F93E1
:101A400060914E03662349F180911C018F5F809362
:101A50001C0190914703891700F120914D0381E00B
:101A6000282720934D0310921C018091480388235E
:101A700069F08091000193E4899F802D1124895B96
:101A8000809300010E94731590934F0380914F0340
:101A9000211101C080E08093B4009F918F917F91CC
:101AA0006F912F910F900FBE0F901F901895789403
:101AB00084B5826084BD84B5816084BD85B5826053
:101AC00085BD85B5816085BD80916E008160809304
:101AD0006E0010928100809181008260809381006D
:101AE000809181008160809381008091800081607D
:101AF000809380008091B10084608093B1008091D8
:101B0000B00081608093B00080917A0084608093FF
:101B10007A0080917A00826080937A0080917A00C6
:101B2000816080937A0080917A00806880937A0047
:101B30001092C10082E38093CF0581E090E0A0E0A5
:101B4000B0E08093CB059093CC05A093CD05B093E6
:101B5000CE058FEF8093C005E0E8F7E7259134913B
:101B60002130304C09F071C2E6E9F7E7E491E093E7
:101B7000A905E7E9F7E7E491E0935405E8E9F7E719
:101B8000E491E0935505E9E9F7E785919491909305
:101B9000570580935605EBE9F7E78591949190936B
:101BA00059058093580587E080937B05EEE9F7E7B8
:101BB000E491E0937A05EFE9F7E7E491E093C0055B
:101BC000E0EAF7E78591949190936D0580936C0519
:101BD000E2EAF7E78591949190936F0580936E0503
:101BE000E4EAF7E7859194919093710580937005ED
:101BF000E6EAF7E7859194919093730580937205D7
:101C0000C1E0C09350056FEF70E085E00E94E103F2
:101C100088E080935A0589E080935B0587E0809394
:101C20005C0586E080935D05D4E0D0935E0582E09C
:101C300080935F0581E1809360050E949A038CE3A5
:101C40009FE090936B0580936A05D0936905C093DC
:101C500074058BE08093AC058DE08093AB0580E14B
:101C60008093AD058EE08093AF058FE08093AE0545
:101C7000C093A605C093BE051092BF05C093A505ED
:101C8000E9E5F1E0E491EF5FE093A205EAE5F1E038
:101C9000E491EF5FE093A3058BE591E09093BD05A0
:101CA0008093BC05CFB7F89480912201811127C0A1
:101CB000EAE7F3E08491EEE8F3E09491E82FF0E0B6
:101CC000EE0FFF1FEC58FF4FA591B491EC91E92363
:101CD00021F461E08AE00E94D60261E08AE00E947D
:101CE0005E038CB580618CBD8CB580648CBD61E079
:101CF0008DE00E945E0361E08BE00E945E038091B4
:101D000022018F5F80932201CFBF8CB58F7D8CBD68
:101D10008CB58C7F81608CBD8DB581608DBD8CB59F
:101D20008C608CBD61E08091AC050E945E0361E037
:101D30008091AB050E945E0361E08091AD050E9439
:101D40005E038091AF0518161CF461E00E945E03EB
:101D50008091AE0518161CF461E00E945E0380912C
:101D6000AF05181674F460E00E94D6026AE070E0D5
:101D700080E090E00E94AC0461E08091AF050E9499
:101D8000D6028091AB05082E000C990BFC01E0599E
:101D9000FC4FE491F0E0EE0FFF1FE258FF4F25915A
:101DA00034913093B3052093B205FC01EC57FC4FFE
:101DB000E491E093B9058091AC05082E000C990BD5
:101DC000FC01E059FC4FE491F0E0EE0FFF1FE258F8
:101DD000FF4F259134913093B1052093B005FC015C
:101DE000EC57FC4FE491E093B8058091AE05082EC6
:101DF000000C990BFC01E059FC4FE491F0E0EE0F70
:101E0000FF1FE258FF4F259134913093B505209381
:101E1000B405FC01EC57FC4FE491E093BA058091C6
:101E2000AD05082E000C990BFC01E059FC4FE49124
:101E3000F0E0EE0FFF1FE258FF4F259134913093F1
:101E4000B7052093B605FC01EC57FC4FE491E093F5
:101E5000BB0581E20E94040384E10E940403809197
:101E6000A90587FF03C08FE78093A9058091A90585
:101E700080680E94040380E20E9404038CE00E94B8
:101E800004030E94230381E08093790584E080931A
:101E90009D0580E790E0909385058093840580E020
:101EA0000E94540261E070E083E00E94E1038091AF
:101EB000B100887F81608093B100F8941092800017
:101EC00010928100109285001092840088E191E0C8
:101ED000909389008093880080918100886080932E
:101EE00081008091810081608093810080916F00EA
:101EF000826080936F00789480916C0590916D055D
:101F0000892B11F00E94500480916605813009F4FC
:101F1000C9C080916905882309F4C4C00E940102E8
:101F200088E890E09093830580938205109288055D
:101F30001092870581E08093760589E080938B0578
:101F400010928E0510929005109292058091C00516
:101F5000882309F4BAC181E08093A6051092A505F3
:101F60001092A405109268058093BE058093BF056A
:101F7000C1E0D1E03FEF632E32E0732E1CE009E0B8
:101F80000E944D088823E1F3E2E2F1E08491E2EB64
:101F9000F0E08491E3EBF0E0C4907091BE05082E70
:101FA000000C990B4C01F7E08F0E911C97FE04C0BA
:101FB0004C012EE0820E911C23E0959487942A9583
:101FC000E1F7181619060CF0C3C01C140CF0C0C0C1
:101FD000EC2DE1330CF0E0E38535910514F084E558
:101FE00090E0F090AA0560E020E533E091E044EB5A
:101FF00050E0CE2EEE0FDD0899246C151D040CF078
:10200000A7C0FA01E490713009F04FC0D90168947B
:10201000BB24B7F85B2C5E2019F05C90592A5C92C7
:10202000B69429F43196E4906894BB24B7F81196DD
:102030005A2E521A581670F3990F19F42C5A3F4F12
:1020400091E06F5F480D591DD8CF9CE39093A9058F
:10205000109254058093550580E293E090935705C4
:102060008093560584ED93E090935905809358052D
:1020700087E080937B0580937A058CEA9DE09093BE
:102080006D0580936C058EED9DE090936F058093B8
:102090006E0584E79EE090937105809370058CE354
:1020A0009FE0AACD10927A0551CF711119C0592E17
:1020B0005094D9016894BB24B7F84B2C4E2019F0EA
:1020C0004C9045204C92B69429F43196E490689453
:1020D000BB24B7F811964A2E421A481670F3ACCFBB
:1020E000D9016894BB24B7F87330F9F4392E3094D1
:1020F0006894552457F8412CB52CBE2039F0BC907B
:102100002F2C242420FE0FC0B92ABC92569429F407
:102110003196E4906894552457F8439411964816E4
:1021200058F3FC2689CFB320F0CF5B2C5E2019F04A
:102130005C9059265C92B69429F43196E4906894A8
:10214000BB24B7F811965A2E521A581670F374CF52
:102150001092A7051093A80582E291E00E94F7066D
:102160008091A205982F990F990F891B8D5A809302
:10217000A7058091A305982F990F990F891B835D5F
:102180008093A8058091C10584FF78C08EEA90E015
:102190000E940A088091A205982F990F990F891B18
:1021A0008D5A8093A7058091A8058F5F8093A8051D
:1021B00080917A05882309F464C086EA90E00E9441
:1021C0000A088091A205982F990F990F891B8D5AA3
:1021D0008093A7058091A8058F5F8093A8058EE95D
:1021E00090E00E940A0880916605813031F5809167
:1021F0007A058F5F60917B0587FD09C0082E000C72
:10220000990B70E06F5F7F4F0E947F15682F60937E
:102210007A050E94010270928305609282051092F5
:10222000880510928705D093760500938B05109250
:102230008E0510929005109292058091650581306F
:1022400019F18091C005482F50E070E060E0C09027
:10225000C105D090C205E090C305F090C405C41636
:10226000D506E606F70610F08F3F71F480916705FA
:10227000813009F085CE0E94180880CE8AEA90E06D
:1022800087CF82EA90E09BCF8FEF8093C0050E94BA
:102290000102109276050E94010286E990E0909377
:1022A000830580938205109288051092870581E04E
:1022B0008093760599E090938B0510928E0510928D
:1022C00090051092920580936805C0906A05D090A1
:1022D0006B05C094D094F12CE12C0E9487042B0153
:1022E0003C010E948704A3019201209530954095FE
:1022F000509560957095809590950E9463159B010F
:10230000AC01C701B6010E9463152B013C01C090CE
:102310005105D0905205F12CE12C0E9487046C0DE0
:102320007D1D8E1D9F1D640D751D861D971D6115DC
:1023300071058105910511F00E94CD131092680579
:1023400024E1422E512C612C712C30E0A32E30E080
:10235000B32EEE24E394F12C56E0252E312C0E946E
:102360004D08882309F408C16091C1057091C20528
:102370008091C3059091C405A30192010E940814A5
:10238000672B682B692B09F0B5C0ABE2B2E0FD0109
:1023900060E07481772361F140815181C280D380F4
:1023A000C601019626E1249F8001259F100D11246E
:1023B0004C0101969801280F391F255D3D4FE90119
:1023C0002B892111F5CFD6E1D49FC001D59F900D67
:1023D00011248D5D9E4F880E991EE40128812223D1
:1023E00009F4D1C08C0D9D1D21E0EC0128831482DD
:1023F000359642E0EF33F40761F6611137C085E0AE
:1024000090E090932C0280932B02F0922E02E092A7
:102410002D0291E090932F023092310220923002EF
:10242000F0923302E092320290933402C7E0D0E09F
:10243000D0933602C0933502F0923802E092370210
:102440009093390230923B0220923A02E2E0F0E0AF
:10245000F0933D02E0933C0290933E029093AE02D3
:102460009093C4029093DA029093C502EBE2F2E0FB
:102470002081318146E1429FC001439F900D11248C
:10248000855D9D4F22813381820F931FEC011C8A51
:102490003596D2E0EF33FD0759F7EBE2F2E08481A5
:1024A000882329F0828193810196938382833596D4
:1024B00022E0EF33F20799F714968C911497882352
:1024C000A1F02D913C91119746E1429FC001439F9D
:1024D000900D1124855D9D4F12962D913C9113977F
:1024E000820F931FE1E0EC01EC8B1596F2E0AF3325
:1024F000BF0711F79BE2892E92E0992ED12CC12CB7
:1025000010E000E0F401E00FF11F8489882321F03E
:10251000B801C6010E9486070F5F1F4F06311105E3
:1025200089F72FEFC21AD20A46E1840E911C8CE083
:10253000C816D10429F783E2882E81E0982ED12C89
:10254000C12C10E000E0F401E00FF11F808188232E
:1025500021F0B801C6010E9486070F5F1F4F0631A8
:10256000110589F79FEFC91AD90AC6E18C0E911C93
:10257000DCE0CD16D10429F7A114B10409F4EFCEA3
:102580000E940000ECCE672F33CF1092A10510926D
:10259000A00589E091E090939F0580939E0588E0D7
:1025A00091E0E3E2F1E0DF019C011D922150304017
:1025B000E1F781E08083858B769632E0EB32F3079A
:1025C000C9F7E4E2F1E081E08193DF01AF50BF4F52
:1025D0008C9341E0E833F407B9F7EFE3F2E028E049
:1025E00031E0DF01A9011D9241505040E1F725E0A3
:1025F00030E030932C0220932B0221E030E0309326
:102600002E0220932D0280932F0246E050E050933B
:102610003102409330023093330220933202809390
:10262000340267E070E070933602609335023093B5
:102630003802209337028093390250933B02409333
:102640003A0222E030E030933D0220933C02809336
:102650003E028093AE028093C4028093DA0280939C
:10266000C50208958F929F92AF92BF92CF92DF9250
:10267000EF92FF92CF93DF93EC01688179818A8199
:102680009B81611571058105910521F464E279ED65
:102690008BE597E02DE133EF41E050E00E94D61347
:1026A00049015A019B01AC01A7EAB1E40E94F5136C
:1026B0006B017C01ACEEB4EFA50194010E94031400
:1026C000C60ED71EE81EF91EF7FE06C081E0C81A26
:1026D000D108E10880E8F80AC882D982EA82FB8240
:1026E000C701B6019F77DF91CF91FF90EF90DF9008
:1026F000CF90BF90AF909F908F9008958F929F92B0
:10270000AF92BF92CF92DF92EF92FF926091010160
:10271000709102018091030190910401611571058E
:102720008105910521F464E279ED8BE597E02DE1D7
:1027300033EF41E050E00E94D61349015A019B015A
:10274000AC01A7EAB1E40E94F5136B017C01ACEE89
:10275000B4EFA50194010E940314C60ED71EE81E13
:10276000F91EF7FE06C081E0C81AD108E10880E82A
:10277000F80AC0920101D0920201E0920301F092A6
:102780000401C701B6019F77FF90EF90DF90CF90D3
:10279000BF90AF909F908F900895609301017093C8
:1027A000020180930301909304010895052E97FB85
:1027B0001EF400940E94ED1357FD07D00E940814E8
:1027C00007FC03D04EF40C94ED13509540953095D2
:1027D00021953F4F4F4F5F4F08959095809570958D
:1027E00061957F4F8F4F9F4F08950E942A14A59F98
:1027F000900DB49F900DA49F800D911D11240895FC
:10280000B7FF0C94F5130E94F513821B930B0895E8
:10281000A1E21A2EAA1BBB1BFD010DC0AA1FBB1FE4
:10282000EE1FFF1FA217B307E407F50720F0A21B56
:10283000B30BE40BF50B661F771F881F991F1A94C3
:1028400069F760957095809590959B01AC01BD01ED
:10285000CF010895A29FB001B39FC001A39F700D47
:10286000811D1124911DB29F700D811D1124911D98
:1028700008950E94AD1488F09F5798F0B92F9927BA
:10288000B751B0F0E1F0660F771F881F991F1AF05B
:10289000BA95C9F714C0B13091F00E94C714B1E0E5
:1028A00008950C94C714672F782F8827B85F39F0E4
:1028B000B93FCCF3869577956795B395D9F73EF4F4
:1028C00090958095709561957F4F8F4F9F4F08959C
:1028D000E89409C097FB3EF49095809570956195BA
:1028E0007F4F8F4F9F4F9923A9F0F92F96E9BB2770
:1028F0009395F695879577956795B795F111F8CFEC
:10290000FAF4BB0F11F460FF1BC06F5F7F4F8F4F56
:102910009F4F16C0882311F096E911C0772321F04C
:102920009EE8872F762F05C0662371F096E8862FE4
:1029300070E060E02AF09A95660F771F881FDAF73B
:10294000880F9695879597F9089557FD9058440FED
:10295000551F59F05F3F71F04795880F97FB991FFE
:1029600061F09F3F79F087950895121613061406BB
:10297000551FF2CF4695F1DF08C016161706180648
:10298000991FF1CF86957105610508940895E89423
:10299000BB2766277727CB0197F908950E94E1149A
:1029A0000C9452150E94441538F00E944B1520F0EB
:1029B000952311F00C943B150C94411511240C94A3
:1029C000C8140E94A51470F3959FC1F3950F50E0B1
:1029D000551F629FF001729FBB27F00DB11D639FD1
:1029E000AA27F00DB11DAA1F649F6627B00DA11D77
:1029F000661F829F2227B00DA11D621F739FB00D1D
:102A0000A11D621F839FA00D611D221F749F33278C
:102A1000A00D611D231F849F600D211D822F762F25
:102A20006A2F11249F5750409AF0F1F088234AF002
:102A3000EE0FFF1FBB1F661F771F881F915050406E
:102A4000A9F79E3F510580F00C943B150C94C814D7
:102A50005F3FE4F3983ED4F3869577956795B795F5
:102A6000F795E7959F5FC1F7FE2B880F911D96950F
:102A7000879597F9089597F99F6780E870E060E07F
:102A800008959FEF80EC089500240A941616170607
:102A900018060906089500240A941216130614064F
:102AA00005060895092E0394000C11F4882352F0B2
:102AB000BB0F40F4BF2B11F460FF04C06F5F7F4F6A
:102AC0008F4F9F4F0895DB018F939F930E94F513C3
:102AD000BF91AF91A29F800D911DA39F900DB29FBA
:102AE000900D11240895991B79E004C0991F961741
:102AF00008F0961B881F7A95C9F78095089597FB73
:102B0000072E16F4009407D077FD09D00E94931584
:102B100007FC05D03EF4909581959F4F08957095E0
:102B200061957F4F0895AA1BBB1B51E107C0AA1FE7
:102B3000BB1FA617B70710F0A61BB70B881F991F5E
:102B40005A95A9F780959095BC01CD010895EE0F97
:0E2B5000FF1F0590F491E02D0994F894FFCF3B
:102B5E00010100000000000000BC058002B607B5B0
:0C2B6E00070D0A004C4F41444552000086
:00000001FF
