:100000000C94D7010C94FF010C94FF010C94FF0198
:100010000C94FF010C94FF010C94FF010C94FF0160
:100020000C94FF010C94FF010C94FF010C945A0DE9
:100030000C94FF010C94FF010C94FF010C94FF0140
:100040000C94100D0C94FF010C94FF010C94FF0113
:100050000C94FF010C94FF010C94FF010C94FF0120
:100060000C94FF010C94FF010101FF030101F70350
:100070006C00680000000000240027002A00000037
:100080000000250028002B000500893008023802F6
:100090004978681400000500380168010000175312
:1000A00044001613780016131400151020001520B4
:1000B0001000540A03E181867F3E186D830F0F0EF6
:1000C0000183866033186DC3198F1803C38E6033A4
:1000D000186DE330CF1803C39E603630CDE360CF98
:1000E0003006C79E7E3E30CDB360CF300CC6F66082
:1000F0003330D9B660CF33CFCCF66061B0DB1E6051
:10010000CF30D86CE6C061B0DB1E618F19986CC629
:10011000C063B19B0E330F0FB078C6FF7E1F1B0666
:100120001E0F53616E6474726973000A0A153A49AE
:10013000676E6F7265006D560A0A504C4541534513
:10014000205455524E204F464620004C4F572042D7
:1001500041545445525921200003053F213F1208C4
:10016000120A100A0E1C0E0C1E0C141A14161F165E
:100170001E131E1E1B1E1E1F1E3F213F3A2F3A1725
:100180003D173F213F181F02040A041F0E04040EEE
:100190001F0A1F0A0E0E1F04110E2E252E2F2A2EA7
:1001A000262929021F02081F08150E04040E150E29
:1001B00015151B151B040604040C04000000001791
:1001C000000300031F0A1F16371A1904130A153AF1
:1001D000000300000E11110E000A040A040E0400B0
:1001E00030000404040010001804031F111F121F24
:1001F000101D151711151F07041F17151D1F151D9D
:1002000001011F1F151F17151F000A0000320004EF
:100210000A110A0A0A110A040115020E11171E0515
:100220001E1F150A0E110A1F110E1F15111F0501A1
:100230000E111D1F041F111F1108100F1F041B1F7B
:1002400010101F061F1E040F0E110E1F09060E119F
:100250002E1F051A121509011F011F101F0F180F5D
:100260001F0C1F1B041B031C03191513001F110374
:100270000418111F000201022020200001020C12AC
:100280001E1F120C0C12120C121F0C1A14041E0545
:10029000242A1E1F021C141D1020201D1F081411CB
:1002A0001F101E041E1E021C0C120C3E0A040C120F
:1002B0003E1E040214160A020F120E101E0E100E1D
:1002C0001E081E120C1226281E322A26041E210089
:1002D0001F00211E040102013F213FF6E8DBCFC3CE
:1002E000B8AEA49B928A827B746E68625C57524E51
:1002F0004945413E3A3734312E2C292725232145C3
:100300000068010000172B152010204C4F41444578
:100310005200172B16201314000A4E6F205344204E
:1003200063617264206F720A6E6F204C4F414445C6
:10033000522E4845580A0A153A45786974001D201E
:10034000466C617368696E670A20206C6F61646532
:10035000722E2E2E0A0A444F4E2754205455524EC8
:10036000204F4646210000000000230026002900FF
:10037000040404040404040402020202020203034B
:100380000303030301020408102040800102040853
:1003900010200102040810200000000800020100E3
:1003A000000304070000000000000000F312112405
:1003B0001FBECFEFD8E0DEBFCDBF11E0A0E0B1E0BF
:1003C000ECEEFBE202C005900D92AC31B107D9F71B
:1003D00025E0ACE1B1E001C01D92A33FB207E1F717
:1003E00011E0C7EDD1E004C02197FE010E94EE1597
:1003F000C63DD107C9F70E949B0D0C94F4150C94CF
:100400000000ECE6F5E014AE12AE1092B5051092C5
:10041000B40515AE10926B0310926A031092690333
:100420001092B4000895CF93DF93E0919A058E2F38
:1004300090E0880F991FE0919805F0919905E80FD9
:10044000F91F859194918F3F980729F41092910597
:10045000DF91CF91089590939D059927880F991F5B
:10046000E0919B05F0919C05E80FF91FC591D4918F
:100470000E940102D0939F05C0939E051092A4058F
:100480001092A30581E08093920589E08093A705EF
:100490001092AA051092AC051092AE0580919A05B3
:1004A0008F5F80939A05D4CF90E0880F991FE091D9
:1004B000A005F091A105E80FF91F25913491309323
:1004C000B1052093B005F90185919491909195051E
:1004D000989F802D11248093B205F9016591749144
:1004E000472F50E08417150629F020F0F9012591D7
:1004F0003491832F989F802D11248093B305089504
:10050000CF93DF93EC01488159812A813B812F5F92
:100510003F4F86E1849FF001859FF00D1124E55C3B
:10052000FE4FE20FF31F808D8823A1F0EBE3F1E093
:10053000CF01608171814617570729F46281738169
:100540002617370729F0369661E0E335F60781F77D
:100550000E948002288139818A819B8146E1429FE5
:10056000F001439FF00D1124E55AFD4FE80FF91FEC
:100570008181882319F081E080831C8281E08D8352
:100580008C81DF91CF910895AF92BF92CF92DF928D
:10059000EF92FF920F931F93CF93DF936C017B0138
:1005A0008B01040F151FEB015E01AE18BF08C017C9
:1005B000D10759F06991D601ED91FC910190F0813C
:1005C000E02DC6010995892B79F7C501DF91CF91FF
:1005D0001F910F91FF90EF90DF90CF90BF90AF9061
:1005E0000895833081F028F4813099F08230A9F0A9
:1005F00008958730A9F08830C9F08430B1F4809133
:1006000080008F7D03C0809180008F778093800071
:10061000089584B58F7784BD089584B58F7DFBCF11
:100620008091B0008F778093B00008958091B000E2
:100630008F7DF9CF1F93CF93DF93282F30E0F901FF
:10064000E856FC4F8491F901EC57FC4FD491F90125
:10065000E059FC4FC491CC23A9F0162F81110E94C0
:10066000F102EC2FF0E0EE0FFF1FE258FF4FA591D3
:10067000B4918FB7F894EC91111108C0D095DE2396
:10068000DC938FBFDF91CF911F910895DE2BF8CFC0
:10069000CF93C82FF89460E08091C9050E941A0397
:1006A0008091CA0518161CF460E00E941A03CEBDA2
:1006B00000000DB407FEFDCF8EB58091CA05181657
:1006C0001CF461E00E941A037894CF9108950F936F
:1006D0001F93CF938091C6058F5F8093C6050CE66C
:1006E00013E0C0E08C2F80640E94480380E80E94E1
:1006F000480361E08091C9050E941A038091CA05F0
:1007000018161CF460E00E941A03F80184E5919128
:100710009EBD00000DB407FEFDCF9EB58150B9F718
:100720008091CA0518161CF461E00E941A03CF5F7D
:100730000C5A1F4FC630B1F680E4CF911F910F9134
:100740000C944803CF93DF9390E0FC01EC57FC4FEF
:10075000249180599C4FFC0184918823C9F090E03A
:10076000880F991FFC01EC58FF4FA591B491FC0133
:10077000E258FF4FC591D49161110DC09FB7F89415
:100780008C91209582238C938881282328839FBF76
:10079000DF91CF910895623051F49FB7F8943C9166
:1007A000822F809583238C93E8812E2BEFCF8FB7F8
:1007B000F894EC912E2B2C938FBFEACFFF920F93DE
:1007C0001F93CF93DF93CCE6D5E0FF24FA9462E049
:1007D0008A850E94A2032A8530E0F901E856FC4F81
:1007E0008491F901EC57FC4F0491F901E059FC4F59
:1007F00014911123E1F081110E94F102E12FF0E048
:10080000EE0FFF1FEA59FC4FA591B491EC91898935
:100810000E2369F0811113C0219685E0C337D807F4
:10082000B1F6DF91CF911F910F91FF9008958989C3
:100830008F5F898B60E08A850E94A203EDCF8F3F96
:1008400011F4198AF7CFF98AF5CF1F93CF93DF936D
:10085000182FEB0161E00E94A203209739F460E0B9
:10086000812FDF91CF911F910C941A03CF3FD105B7
:1008700011F461E0F5CFE12FF0E0E856FC4FE49190
:10088000E33031F140F4E130B1F0E230E1F0C03872
:10089000D1057CF7E4CFE73029F1E83059F1E430B5
:1008A000B1F780918000806280938000D0938B00AC
:1008B000C0938A0004C084B5806884BDC7BDDF9141
:1008C000CF911F91089584B5806284BDC8BDF7CFD4
:1008D00080918000806880938000D0938900C093CD
:1008E0008800EDCF8091B00080688093B000C09305
:1008F000B300E5CF8091B00080628093B000C093D8
:10090000B400DDCF8E50806480937C0080917A00AB
:10091000806480937A0080917A0086FDFCCF80917C
:100920007800909179000895809190058F7149F534
:1009300084E10E948204BC01990F880B990B0E94EC
:10094000B11426EE3FE34EEC50E40E9415150E94D0
:1009500080149B017093870560938605672BB9F01F
:1009600084E080938505E8E8F5E080E041915191CD
:100970002417350718F48093850508958F5F843018
:10098000A9F7809190058F5F8093900508958FEF70
:1009900080938505F6CF3FB7F8948091360190910A
:1009A0003701A0913801B091390126B5A89B05C047
:1009B0002F3F19F00196A11DB11D3FBFBA2FA92FDE
:1009C000982F8827BC01CD01620F711D811D911DDB
:1009D00042E0660F771F881F991F4A95D1F7089547
:1009E0008F929F92AF92BF92CF92DF92EF92FF923F
:1009F0004B015C010E94CB046B017C010E94CB0483
:100A00006C197D098E099F09683E73408105910527
:100A1000A8F321E0821A9108A108B10888EEC80E57
:100A200083E0D81EE11CF11C81149104A104B104DF
:100A300029F7FF90EF90DF90CF90BF90AF909F90FD
:100A40008F900895DC01643570F5403360F5909621
:100A50008C919097E62F062E000CFF0B242F2595E6
:100A60002595259594E52902E00DF11D1124E45901
:100A7000FC4F2081342F37708230B1F4822F90E008
:100A8000032E02C0959587950A94E2F780958170B0
:100A9000811114C081E090E001C0880F3A95EAF717
:100AA0008095822380830895833091F71C968C91E2
:100AB00081706427609561708613ECCF81E090E0CF
:100AC00001C0880F3A95EAF7822BECCFAF92BF9224
:100AD000CF92DF92EF92FF920F931F93CF93DF930A
:100AE000182F062FC0E0D3E08AEFD82E9EEFE92E14
:100AF000842F8470C82E842F8270B82E842F887023
:100B0000A82E4170F42ECF5F8C2F880F8F5FE80ED8
:100B1000CC2081F0402F4D0F612F6C0F8AEB95E0B8
:100B20000E942205402F4C0F6D2F610F8AEB95E03C
:100B30000E942205BB2081F0402F4D1B612F6C0FBE
:100B40008AEB95E00E942205402F4C1B6D2F610F10
:100B50008AEB95E00E942205AA2081F0402F4C0FDD
:100B6000612F6D1B8AEB95E00E942205402F4D0FEF
:100B7000612F6C1B8AEB95E00E942205FF2081F01B
:100B8000402F4C1B612F6D1B8AEB95E00E942205C4
:100B9000402F4D1B612F6C1B8AEB95E00E942205B4
:100BA000CD173CF4E7FCAFCFD150D394D394ED0CE8
:100BB000AACFDF91CF911F910F91FF90EF90DF901F
:100BC000CF90BF90AF900895EF92FF920F931F9335
:100BD000CF93DF938C01F62ED42FE22EC0E0CE15FA
:100BE00044F46F2D6C0F4D2FC8010E942205CF5F7A
:100BF000F6CFDF91CF911F910F91FF90EF90089565
:100C00002F923F924F925F926F927F928F929F921C
:100C1000AF92BF92CF92DF92EF92FF920F931F930A
:100C2000CF93DF9300D000D0CDB7DEB79C838B830A
:100C30006A3099F4DC0118962C91189715969C91BE
:100C400015971A968C911A97299F800D11241A9640
:100C50008C931A9719961C92F0C06D3009F4EDC070
:100C6000EB81FC815184F3E5F5150CF4C3C0AB8135
:100C7000BC811A96FC90BFE2BF150CF4BBC0EB819F
:100C8000FC81108524812150330B129FC001139FDA
:100C9000900D1124850D911D57FC9A951816190673
:100CA0000CF0A8C025818F2D0F2C000C990B129FE2
:100CB000800D911D1124181619060CF09BC0F0A18F
:100CC000F983752C612C262E312CA12E012E000CBF
:100CD000BB08E62D062C000CFF0BAB81BC811496E3
:100CE0008C91149790E0E817F9070CF07EC00197FB
:100CF000E817F907A1F1289E6001299ED00C389EC3
:100D0000D00C1124CE0EDF1E5E96ED91FC91EC0D01
:100D1000FD1DE4910F2DE12CB62DB50DBA83AB81ED
:100D2000BC8115962C9115978E2D0E2C000C990BCD
:100D30002817190609F00CF455C0CE2ED12CE0FF6F
:100D400026C0113071F44E2D4F0D6A81CD010E94E5
:100D50002205F601F595E795E394010FE0CFE0E079
:100D6000D9CF402E4501800E911C07FD9A94842D09
:100D7000042C000C990B881599055CF7212F442D44
:100D8000672D8B819C810E94E4054394F0CFEB8119
:100D9000FC8181A190A18917E1F280A3113061F457
:100DA0004E2D4F0D6A81CF010E942205E981AB8152
:100DB000BC819096EC93CDCF402E4501800E911CC6
:100DC00007FD9A94842D042C000C990B8815990525
:100DD0006CF7212F442D672D8B819C810E94E405A7
:100DE0004394F0CF6394710E74CFE981AB81BC81E1
:100DF0009096EC93AB81BC8118962C911897149621
:100E00003C91149719968C911997239F800D11246A
:100E100019968C93199717969C911797992369F0B7
:100E2000082E000C990B44E550E0239F401951090E
:100E30001124481759070CF401CF81E090E00F907E
:100E40000F900F900F90DF91CF911F910F91FF9016
:100E5000EF90DF90CF90BF90AF909F908F907F905A
:100E60006F905F904F903F902F900895682F8AEB7E
:100E700095E00C9400060F931F93CF93DF938C01A2
:100E8000D0E0C0E0F801EC0FFD1F6491662341F053
:100E90008AEB95E00E940006892B11F02196F2CF93
:100EA000CE01DF91CF911F910F910895EF92FF92A4
:100EB0000F931F93CF93DF938C01D62FF42EE22E46
:100EC000C0E0CE1544F44F2D4C0F6D2FC8010E9489
:100ED0002205CF5FF6CFDF91CF911F910F91FF9049
:100EE000EF9008958F929F92AF92BF92CF92DF9230
:100EF000EF92FF920F931F93CF93DF93082FB62E9D
:100F0000942EA22E83E0F82ED0E0C3E09AEFE92ED3
:100F10001EEFCC24C394C20EDF5F1F0D2C2F220FB7
:100F20004B2D4C1B8A2C8F0CDB2CDD1A81E02C0DF9
:100F3000602F981218C06D0F8AEB95E00E9456073B
:100F4000282D4D2D6C2F600F8AEB95E00E945607DF
:100F5000DC179CF417FD04C0C150E394E3941E0D0C
:100F6000F394F394D9CF6D1B8AEB95E00E9456075A
:100F7000282D4D2D602F6C1BE7CFDF91CF911F9156
:100F80000F91FF90EF90DF90CF90BF90AF909F9028
:100F90008F9008950F931F93CF93DF930196EC01E9
:100FA000CC0FDD1F6F5F7F4F8B01000F111F22E001
:100FB000402F6C2F8AEB95E00E94E40541E0400F42
:100FC00022E06C2F8AEB95E00E94E40522E0402F9E
:100FD0006C2F8AEB95E00E9456076C2F6F5F22E022
:100FE000402F8AEB95E0DF91CF911F910F910C94E8
:100FF0005607089590E080E00895FC0101900020DC
:10100000E9F73197AF01481B590BBC018AEB95E01A
:101010000C94C4028F929F92AF92BF920F931F9332
:10102000CF93DF93CDB7DEB7A1970FB6F894DEBFAD
:101030000FBECDBF19A2423008F44AE08E010F5D09
:101040001F4F842E912CB12CA12CA50194010E943C
:101050004F14E62FB901CA01EA30F4F4E05DD8017B
:10106000EE938D01232B242B252B79F790E080E044
:10107000109719F0CD010E94FD07A1960FB6F894C4
:10108000DEBF0FBECDBFDF91CF911F910F91BF90FB
:10109000AF909F908F900895E95CE1CFCF93DF935D
:1010A0000E943B07EC0181E191E00E94FD078C0F5B
:1010B0009D1FDF91CF910895ECE6F3E088EF91E07A
:1010C000DF019C011D9221503040E1F71092C305D1
:1010D0001092C4058EE393E00E943B070E946703D1
:1010E0008CB583608CBD8DB58E7F8DBD84E191E024
:1010F000EEEFFFE309951092C00589E193E00E94AD
:101100004E080E9467030E94DE03809181058130B2
:1011100039F062E370E080E090E00E94F004F3CFE9
:1011200008954F925F926F927F928F929F92AF92AB
:10113000BF92CF92DF92EF92FF920F931F93CF93C4
:10114000DF9300D000D01F92CDB7DEB74091EC0501
:101150005091ED056091EE057091EF052FB7F89471
:101160008091650390916603A0916703B091680335
:101170002FBF481B590B6A0B7B0B8091EB0590E04E
:10118000B0E0A0E00091E7051091E8052091E905A5
:101190003091EA0584179507A607B70708F0CEC077
:1011A000011511052105310509F4C8C02FB7F894C0
:1011B0008091650390916603A0916703B0916803E5
:1011C0002FBF2091EB05820F911DA11DB11D8093B2
:1011D000EC059093ED05A093EE05B093EF0580919B
:1011E000DD059091DE05A091DF05B091E005019647
:1011F000A11DB11D8093DD059093DE05A093DF0551
:10120000B093E0051092E7051092E8051092E90509
:101210001092EA050E94CB046093E3057093E40505
:101220008093E5059093E60580916D0590916E059C
:101230002FE0289FA001299F500D11245A83498334
:1012400085E10E948204A981BA818A0F9B1FB4E0C4
:1012500096958795BA95E1F790936E0580936D0505
:1012600020916C05222309F448C060917005262F57
:1012700030E050E040E029833A834B835C83C090A8
:101280007105D12CF12CE12C40917405509175051C
:101290004A01B12CA12C20917205309173052901CE
:1012A000712C612C8217930728F09C01481759076D
:1012B00008F49A0150E040E024193509460957091D
:1012C00069817A818B819C816C197D098E099F09C6
:1012D0000E94AA15A5019401241935094609570948
:1012E0000E941D14C20ED31EE41EF51EC0926F058F
:1012F0006C2D70E085E00E9425040E94DE03809141
:10130000880590918905892B11F00E94940481E051
:101310000F900F900F900F900F90DF91CF911F9132
:101320000F91FF90EF90DF90CF90BF90AF909F9084
:101330008F907F906F905F904F900895012B022BBC
:10134000032B09F0E6C28091830581508E3FB8F5EA
:1013500080918205813099F5809196058F5F60912B
:10136000970587FD09C0082E000C990B70E06F5F90
:101370007F4F0E94C615682F6093960582E193E027
:101380009093F1058093F00588E48093F2050E9424
:1013900001028FEF92E090939F0580939E0510923B
:1013A000A4051092A30581E08093920589E08093C3
:1013B000A7051092AA051092AC051092AE05809177
:1013C000830581508E3F70F480918105813009F052
:1013D00021C385E093E09093F1058093F00588E4C4
:1013E0008093F20580919105882331F080919205D8
:1013F000811102C00E94130280919205882309F492
:101400003EC08091A60581113AC080919E059091C1
:101410009F05E091A305F091A405EE0FFF1FE80FD3
:10142000F91F259134912115310509F4BBC0A9019B
:101430005695479556954795842F20FD5EC08F732E
:101440008093A50580919505839F802D112480931D
:10145000A6051092B6051092B5051092B40581E06C
:101460008093A805809369031092A9058091A30534
:101470009091A40501969093A4058093A305809173
:10148000A805882331F08091A6058111A5C00E948E
:1014900001028091F205882309F4F2C18C3008F032
:1014A00082C13CE0381B398381E08093C2051092F1
:1014B000DA051092DB054091BF054D8393E0E92EDC
:1014C000E40E1981141B0DE2010F0E2C000CFF0815
:1014D000E00EF11C07FDFA94802F002E000C990BF2
:1014E0008E159F050CF061C12EE4402F63E08AEB5E
:1014F00095E00E94E4050F5FEFCFC901E6E0969505
:101500008795EA95E1F78F71932F96959695969525
:1015100090514F70423099F1D0F4442309F43CC00B
:101520004130B9F1E091A305F091A4053196F09313
:10153000A405E093A305CF01880F991FE0919E05B4
:10154000F0919F05E80FF91F2591349170CF43303A
:1015500061F0443039F720919505289F802D1124A2
:101560008093AE059093AF05DDCF20919505289F20
:10157000802D11248093AC059093AD05D3CF20919D
:101580009505289F802D11248093AA059093AB0583
:10159000C9CF0E945402C6CF8B3008F08AE08093F6
:1015A000A705C0CF2091A205211110C0109292056D
:1015B00080919105811103C00E94010260CF0E94B9
:1015C00013028091A3059091A405B6CF1092A405B3
:1015D0001092A305FC01B8CF81508093A60580919D
:1015E000B605811142C02091B4053091B5052F5F39
:1015F0003F4FC901880F991FE091B005F091B105E7
:10160000E80FF91F85919491482F47704093B705D3
:10161000492F469546954093B805AC0164E0569530
:1016200047956A95E1F74F7390919505499F402D35
:1016300011244093B60583FB882780F980936403C7
:101640003093B5052093B4058091B20590E028173A
:10165000390758F02091B305222309F49EC0821B5C
:1016600091099093B5058093B4058091B60581509A
:101670008093B6058091A90531E0380F3093A90514
:101680004091A5052091B805240F80919D05280F54
:10169000209393056091AC05662371F070E0832F71
:1016A000032E000C990B0E94C6158091AD05869FF4
:1016B000200D1124209393058091930590E084964A
:1016C00064E270E00E94C615809393052091A705FF
:1016D000209394056091AA05662381F0062E000CE4
:1016E000770B832F032E000C990B0E94C615809157
:1016F000AB05869F200D1124209394056091AE05C3
:101700006623A1F0832F330F990B70E00E94C6155A
:10171000CB0162E070E00E94C6152091AF05909168
:101720009405289F900D1124909394054F33C1F197
:10173000809194058A300CF089E087FD80E08093E9
:101740009405F894E0919305F0E0E552FD4FE491A3
:10175000E09363032091B905309194053203900121
:1017600011244091B7054203C001439F900D1124FD
:101770002091960502C0880F991F2A95E2F797FFDE
:1017800002C081589F4F880F892F881F990B809323
:101790006A0380936B0378947CCE0E94010265CF2C
:1017A00010929405CECF19827FCE5D8154505D8317
:1017B000105D252F41E0612F80E50E9472072D8189
:1017C00042E0612F83E00E94720781E08093DA0596
:1017D0008093DB050091BF051981101B8DE2F82E67
:1017E000F10E2EE44F2D63E08AEB95E00E94E405B4
:1017F00083E0800F8F0D8D83482F41502EE463E0EE
:101800008AEB95E00E94E4050350105D202F412FE4
:1018100060E08AEB95E00E945607202F412F63E598
:101820008AEB95E00E94560741E0612F83E00E9419
:10183000660542E0612F80E50E9466059D81945017
:101840009D8344E0692F80E50E94660548E06D8134
:1018500083E00E94660584E08093C3058091BF0504
:10186000A981A81BA15DA093C4058091F00590916A
:10187000F1050E943B078091F20581508093F205AB
:101880008091880590918905892BD9F0B1E0B093BA
:10189000DA051092DB059091BE0585E5891B8093E2
:1018A000C3051092C40580918505813009F497C065
:1018B00090F190918405853008F0A7C08B5F91115D
:1018C0009FC00E9467038091C00581110EC0ECE6A5
:1018D000F3E088EF91E0DF019C011D922150304040
:1018E000E1F71092C3051092C4050E94CB046093E7
:1018F000E7057093E8058093E9059093EA05209148
:10190000E3053091E405621B730B7093E20560936D
:10191000E10580E0FDCC0E9401021092920521E0D9
:101920002093C205E9E5F1E0E491EF5FE093BE05A5
:10193000EAE5F1E0E491EF5FE093BF058BE591E02C
:101940009093D9058093D805109289051092880547
:101950001092C00538EA39830E9491088823E1F388
:101960008BE491E00E943B076091860570918705AA
:1019700090E080E04AE00E940A0886E391E00E943D
:101980003B07698162956F7070E090E080E04AE00B
:101990000E940A088BE291E00E943B07809181053A
:1019A000813009F48ECF4981415049834111D4CF10
:1019B00070E060E085E00E94250483B7817F846049
:1019C00083BF83B7816083BF83B7816083BF8895FE
:1019D00083B78E7F83BF83B78E7F83BFBDCF809158
:1019E000DD059091DE05A091DF05B091E0058F70D7
:1019F0009927AA27BB270897A105B10520F487E0FE
:101A00000E9436075ECF88E7FBCF992309F459CFB0
:101A10008FE2F6CF893209F0E5CC0E945C08E2CC77
:101A20001F920F920FB60F9211242F933F938F9313
:101A30009F93AF93BF938091650390916603A091AC
:101A40006703B09168033091350123E0230F2D37F0
:101A500058F50196A11DB11D2093350180936503B2
:101A600090936603A0936703B09368038091360157
:101A700090913701A0913801B09139010196A11DD3
:101A8000B11D8093360190933701A0933801B09334
:101A90003901BF91AF919F918F913F912F910F90FD
:101AA0000FBE0F901F90189526E8230F0296A11DD8
:101AB000B11DD2CF1F920F920FB60F9211242F9308
:101AC0006F937F938F939F9360916A03662349F18D
:101AD000809134018F5F8093340190916303891763
:101AE00000F12091690381E0282720936903109277
:101AF000340180916403882369F08091000193E4AC
:101B0000899F802D1124895B809300010E94BA1562
:101B100090936B0380916B03211101C080E080934F
:101B2000B4009F918F917F916F912F910F900FBE75
:101B30000F901F901895789484B5826084BD84B509
:101B4000816084BD85B5826085BD85B5816085BDB8
:101B500080916E00816080936E0010928100809170
:101B600081008260809381008091810081608093F8
:101B70008100809180008160809380008091B1001D
:101B800084608093B1008091B00081608093B00048
:101B900080917A00846080937A0080917A008260DC
:101BA00080937A0080917A00816080937A0080919E
:101BB0007A00806880937A001092C10082E380935B
:101BC000EB0581E090E0A0E0B0E08093E705909322
:101BD000E805A093E905B093EA058FEF8093DC0553
:101BE000E0E8F7E7259134912130304C09F071C2DB
:101BF000E6E9F7E7E491E093C505E7E9F7E7E49163
:101C0000E0937005E8E9F7E7E491E0937105E9E90D
:101C1000F7E7859194919093730580937205EBE9B2
:101C2000F7E785919491909375058093740587E00B
:101C300080939705EEE9F7E7E491E0939605EFE9E5
:101C4000F7E7E491E093DC05E0EAF7E7859194910A
:101C50009093890580938805E2EAF7E7859194914E
:101C600090938B0580938A05E4EAF7E78591949138
:101C700090938D0580938C05E6EAF7E78591949122
:101C800090938F0580938E05C1E0C0936C056FEF34
:101C900070E085E00E94250488E08093760589E065
:101CA0008093770587E08093780586E080937905B7
:101CB000D4E0D0937A0582E080937B0581E1809324
:101CC0007C050E94DE038CE39FE090938705809360
:101CD0008605D0938505C09390058BE08093C80559
:101CE0008DE08093C70580E18093C9058EE08093E5
:101CF000CB058FE08093CA05C093C205C093DA0577
:101D00001092DB05C093C105E9E5F1E0E491EF5FD6
:101D1000E093BE05EAE5F1E0E491EF5FE093BF05F3
:101D20008BE591E09093D9058093D805CFB7F894CF
:101D300080913A01811127C0EAE7F3E08491EEE84F
:101D4000F3E09491E82FF0E0EE0FFF1FEC58FF4F07
:101D5000A591B491EC91E92321F461E08AE00E941D
:101D60001A0361E08AE00E94A2038CB580618CBDF9
:101D70008CB580648CBD61E08DE00E94A20361E0BF
:101D80008BE00E94A20380913A018F5F80933A0119
:101D9000CFBF8CB58F7D8CBD8CB58C7F81608CBDA9
:101DA0008DB581608DBD8CB58C608CBD61E08091FE
:101DB000C8050E94A20361E08091C7050E94A203AA
:101DC00061E08091C9050E94A2038091CB0518169D
:101DD0001CF461E00E94A2038091CA0518161CF44D
:101DE00061E00E94A2038091CB05181674F460E0B4
:101DF0000E941A036AE070E080E090E00E94F00424
:101E000061E08091CB050E941A038091C705082EDE
:101E1000000C990BFC01E059FC4FE491F0E0EE0F4F
:101E2000FF1FE258FF4F259134913093CF05209347
:101E3000CE05FC01EC57FC4FE491E093D505809171
:101E4000C805082E000C990BFC01E059FC4FE491E9
:101E5000F0E0EE0FFF1FE258FF4F259134913093D1
:101E6000CD052093CC05FC01EC57FC4FE491E093A9
:101E7000D4058091CA05082E000C990BFC01E0598D
:101E8000FC4FE491F0E0EE0FFF1FE258FF4F259169
:101E900034913093D1052093D005FC01EC57FC4FD1
:101EA000E491E093D6058091C905082E000C990BAA
:101EB000FC01E059FC4FE491F0E0EE0FFF1FE25807
:101EC000FF4F259134913093D3052093D205FC0127
:101ED000EC57FC4FE491E093D70581E20E94480360
:101EE00084E10E9448038091C50587FF03C08FE706
:101EF0008093C5058091C50580680E94480380E2F3
:101F00000E9448038CE00E9448030E94670381E01E
:101F10008093950584E08093B90580E790E09093E5
:101F2000A1058093A00580E00E94540261E070E06A
:101F300083E00E9425048091B100887F81608093B6
:101F4000B100F894109280001092810010928500E8
:101F50001092840088E191E090938900809388003A
:101F600080918100886080938100809181008160F0
:101F70008093810080916F00826080936F007894DD
:101F80008091880590918905892B11F00E94940415
:101F900080918205813009F4C9C08091850588232C
:101FA00009F4C4C00E94010288E890E090939F0564
:101FB00080939E051092A4051092A30581E0809362
:101FC000920589E08093A7051092AA051092AC05AE
:101FD0001092AE058091DC05882309F4BAC181E036
:101FE0008093C2051092C1051092C005109284051D
:101FF0008093DA058093DB05C1E0D1E03FEF832ECB
:1020000032E0932E1CE009E00E9491088823E1F35E
:10201000E2E2F1E08491E2EBF0E08491E3EBF0E0C6
:10202000C4907091DA05082E000C990B5C01F7E062
:10203000AF0EB11CB7FE04C05C012EE0A20EB11CB5
:1020400023E0B594A7942A95E1F7181619060CF029
:10205000C3C01C140CF0C0C0EC2DE1330CF0E0E365
:102060008535910514F084E590E0F090C60560E0B8
:102070002CE633E091E044EB50E0CE2EEE0FDD088D
:10208000BB246C151D040CF0A7C0FA01E49071305C
:1020900009F04FC0D9016894772477F8672C6E2037
:1020A00019F06C90692A6C92769429F43196E49038
:1020B0006894772477F811966A2E621A681670F37E
:1020C000990F19F42C5A3F4F91E06F5F4A0D5B1D39
:1020D000D8CF9CE39093C50510927005809371054D
:1020E00080E293E0909373058093720584ED93E012
:1020F000909375058093740587E08093970580938E
:1021000096058CEA9DE090938905809388058EED75
:102110009DE090938B0580938A0584E79EE09093E1
:102120008D0580938C058CE39FE0AACD10929605D7
:1021300051CF711119C0692E6094D9016894772428
:1021400077F8572C5E2019F05C9056205C927694BC
:1021500029F43196E4906894772477F811965A2EF2
:10216000521A581670F3ACCFD9016894772477F8D7
:102170007330F9F4492E40946894662467F8512C22
:10218000762C7E2039F07C903F2C352430FE0FC019
:10219000792A7C92669429F43196E49068946624B6
:1021A00067F853941196581658F3FC2689CF74207B
:1021B000F0CF672C6E2019F06C9069266C927694A3
:1021C00029F43196E4906894772477F811966A2E72
:1021D000621A681670F374CF1092C3051093C40589
:1021E00082E291E00E943B078091BE05982F990FF3
:1021F000990F891B8D5A8093C3058091BF05982F35
:10220000990F990F891B835D8093C4058091DD052B
:1022100084FF78C08EEA90E00E944E088091BE054F
:10222000982F990F990F891B8D5A8093C305809120
:10223000C4058F5F8093C40580919605882309F4B7
:1022400064C086EA90E00E944E088091BE05982FF7
:10225000990F990F891B8D5A8093C3058091C405EE
:102260008F5F8093C4058EE990E00E944E088091B4
:102270008205813031F5809196058F5F60919705D9
:1022800087FD09C0082E000C990B70E06F5F7F4F2F
:102290000E94C615682F609396050E9401029092D5
:1022A0009F0580929E051092A4051092A305D093DD
:1022B00092050093A7051092AA051092AC05109202
:1022C000AE0580918105813019F18091DC05482FA0
:1022D00050E070E060E0C090DD05D090DE05E09059
:1022E000DF05F090E005C416D506E606F70610F007
:1022F0008F3F71F480918305813009F085CE0E9473
:102300005C0880CE8AEA90E087CF82EA90E09BCF9B
:102310008FEF8093DC050E940102109292050E94CB
:10232000010286E990E090939F0580939E051092AC
:10233000A4051092A30581E08093920599E0909303
:10234000A7051092AA051092AC051092AE058093D5
:102350008405C0908605D0908705C094D094F12C58
:10236000E12C0E94CB044B015C010E94CB04A5012F
:102370009401209530954095509560957095809585
:1023800090950E94AA159B01AC01C701B6010E945D
:10239000AA154B015C01C0906D05D0906E05F12C23
:1023A000E12C0E94CB046C0D7D1D8E1D9F1D680DC0
:1023B000791D8A1D9B1D611571058105910511F01F
:1023C0000E9414141092840524E1422E512C612C99
:1023D000712C30E0232E30E0332ECC24C394D12C4A
:1023E00056E0852E912CD6E1C1E00E949108882309
:1023F00009F4F2C06091DD057091DE058091DF0582
:102400009091E005A30192010E944F14672B682B65
:10241000692B09F09FC01092400110924601109262
:102420004C01109252010BE311E07801B12CD7015D
:1024300014968C911497882349F015968C918111EC
:1024400005C0C7010E9480028111B82EB6E0EB0ED4
:10245000F11CE3E5EE16E1E0FE0649F7B11036C0E7
:1024600085E090E090933C0180933B01D0923E0147
:10247000C0923D01C0933F01909242018092410180
:10248000D0924401C0924301C0934501A7E0B0E05F
:10249000B0934801A0934701D0924A01C0924901EC
:1024A000C0934B0190924E0180924D01E2E0F0E02A
:1024B000F0935001E0934F01C0935101C093C201CA
:1024C000C093D801C093EE01C093D901EBE3F1E0D2
:1024D00020813181D29FC001D39F900D1124855C52
:1024E0009E4F22813381820F931FDC0158961C92EC
:1024F0003696B1E0E335FB0759F7EBE3F1E0848171
:10250000882329F082819381019693838283369672
:1025100021E0E335F20799F7D80114968C911497CE
:10252000882391F02D913C911197D29FC001D39FA8
:10253000900D1124855C9E4F12962D913C91820F37
:10254000931F21E0FC01208F0A5F1F4F81E00335BC
:10255000180711F79BE3A92E91E0B92EF12CE12C7D
:1025600010E000E0F501E00FF11F808D882321F0DD
:10257000B801C7010E94CA070F5F1F4F063111053E
:1025800089F79FEFE91AF90AA6E1AA0EB11CBCE08F
:10259000EB16F10429F78BE5A82E82E0B82EF12C7A
:1025A000E12C10E000E0F501E00FF11F80818823AD
:1025B00021F0B801C7010E94CA070F5F1F4F063103
:1025C000110589F7EFEFEE1AFE0AF6E1AF0EB11C26
:1025D0002CE0E216F10429F72114310409F405CFA7
:1025E0000E94000000CF1092BD051092BC0589E04A
:1025F00091E09093BB058093BA0588E091E0EBE50C
:10260000F2E0DF019C011D9221503040E1F781E0B2
:102610008083858B769633E0E336F307C9F7ECE5E4
:10262000F2E020E732E081E08193DF01AF50BF4F5D
:102630008C932E173F07C1F710924001109246016C
:1026400010924C0110925201E3E5F1E028E031E0F4
:10265000DF01A9011D9241505040E1F725E030E033
:1026600030933C0120933B0121E030E030933E0168
:1026700020933D0180933F0146E050E0509342019A
:1026800040934101309344012093430180934501DD
:1026900067E070E0709348016093470130934A010E
:1026A0002093490180934B0150934E0140934D017B
:1026B00022E030E03093500120934F01809351018C
:1026C0008093C2018093D8018093EE018093D90159
:1026D00010922001109221011092260110922701E0
:1026E00010922C0110922D011092320110923301A0
:1026F00008958F929F92AF92BF92CF92DF92EF9206
:10270000FF92CF93DF93EC01688179818A819B816D
:10271000611571058105910521F464E279ED8BE580
:1027200097E02DE133EF41E050E00E941D14490194
:102730005A019B01AC01A7EAB1E40E943C146B0171
:102740007C01ACEEB4EFA50194010E944A14C60EC0
:10275000D71EE81EF91EF7FE06C081E0C81AD10890
:10276000E10880E8F80AC882D982EA82FB82C701C0
:10277000B6019F77DF91CF91FF90EF90DF90CF90E0
:10278000BF90AF909F908F9008958F929F92AF923D
:10279000BF92CF92DF92EF92FF9260910101709110
:1027A0000201809103019091040161157105810579
:1027B000910521F464E279ED8BE597E02DE133EFAB
:1027C00041E050E00E941D1449015A019B01AC01F7
:1027D000A7EAB1E40E943C146B017C01ACEEB4EFBB
:1027E000A50194010E944A14C60ED71EE81EF91EC8
:1027F000F7FE06C081E0C81AD108E10880E8F80AAF
:10280000C0920101D0920201E0920301F092040112
:10281000C701B6019F77FF90EF90DF90CF90BF90F8
:10282000AF909F908F900895609301017093020183
:1028300080930301909304010895052E97FB1EF4E5
:1028400000940E94341457FD07D00E944F1407FCD7
:1028500003D04EF40C943414509540953095219546
:102860003F4F4F4F5F4F08959095809570956195BC
:102870007F4F8F4F9F4F08950E947114A59F900D19
:10288000B49F900DA49F800D911D11240895B7FF52
:102890000C943C140E943C14821B930B0895A1E2FB
:1028A0001A2EAA1BBB1BFD010DC0AA1FBB1FEE1FCA
:1028B000FF1FA217B307E407F50720F0A21BB30B15
:1028C000E40BF50B661F771F881F991F1A9469F791
:1028D00060957095809590959B01AC01BD01CF01ED
:1028E0000895A29FB001B39FC001A39F700D811DE9
:1028F0001124911DB29F700D811D1124911D089509
:102900000E94F41488F09F5798F0B92F9927B75177
:10291000B0F0E1F0660F771F881F991F1AF0BA9583
:10292000C9F714C0B13091F00E940E15B1E00895BE
:102930000C940E15672F782F8827B85F39F0B93FB0
:10294000CCF3869577956795B395D9F73EF4909536
:102950008095709561957F4F8F4F9F4F0895E894B4
:1029600009C097FB3EF490958095709561957F4FD7
:102970008F4F9F4F9923A9F0F92F96E9BB27939585
:10298000F695879577956795B795F111F8CFFAF495
:10299000BB0F11F460FF1BC06F5F7F4F8F4F9F4FC6
:1029A00016C0882311F096E911C0772321F09EE824
:1029B000872F762F05C0662371F096E8862F70E08A
:1029C00060E02AF09A95660F771F881FDAF7880F64
:1029D0009695879597F9089557FD9058440F551F80
:1029E00059F05F3F71F04795880F97FB991F61F091
:1029F0009F3F79F087950895121613061406551F08
:102A0000F2CF4695F1DF08C0161617061806991F73
:102A1000F1CF86957105610508940895E894BB2768
:102A200066277727CB0197F908950E9428150C9403
:102A300099150E948B1538F00E94921520F095236D
:102A400011F00C9482150C94881511240C940F1518
:102A50000E94EC1470F3959FC1F3950F50E0551F41
:102A6000629FF001729FBB27F00DB11D639FAA27E3
:102A7000F00DB11DAA1F649F6627B00DA11D661F32
:102A8000829F2227B00DA11D621F739FB00DA11D53
:102A9000621F839FA00D611D221F749F3327A00D0D
:102AA000611D231F849F600D211D822F762F6A2FA9
:102AB00011249F5750409AF0F1F088234AF0EE0F0E
:102AC000FF1FBB1F661F771F881F91505040A9F73B
:102AD0009E3F510580F00C9482150C940F155F3FBA
:102AE000E4F3983ED4F3869577956795B795F79577
:102AF000E7959F5FC1F7FE2B880F911D96958795EF
:102B000097F9089597F99F6780E870E060E008956D
:102B10009FEF80EC089500240A94161617061806F5
:102B20000906089500240A941216130614060506D1
:102B30000895092E0394000C11F4882352F0BB0F62
:102B400040F4BF2B11F460FF04C06F5F7F4F8F4FC5
:102B50009F4F0895DB018F939F930E943C14BF9178
:102B6000AF91A29F800D911DA39F900DB29F900DDC
:102B700011240895991B79E004C0991F961708F055
:102B8000961B881F7A95C9F78095089597FB072EA5
:102B900016F4009407D077FD09D00E94DA1507FCDF
:102BA00005D03EF4909581959F4F0895709561955D
:102BB0007F4F0895AA1BBB1B51E107C0AA1FBB1F73
:102BC000A617B70710F0A61BB70B881F991F5A95B9
:102BD000A9F780959095BC01CD010895EE0FFF1FD8
:0C2BE0000590F491E02D0994F894FFCFCB
:102BEC000101000000000000000006C402FA07F911
:0C2BFC00070D0A004C4F414445520000F8
:00000001FF
