:100000000C94D7010C94FF010C94FF010C94FF0198
:100010000C94FF010C94FF010C94FF010C94FF0160
:100020000C94FF010C94FF010C94FF010C94F70D4C
:100030000C94FF010C94FF010C94FF010C94FF0140
:100040000C94AD0D0C94FF010C94FF010C94FF0176
:100050000C94FF010C94FF010C94FF010C94FF0120
:100060000C94FF010C94FF010101FF030101F70350
:100070006C00680000000000240027002A00000037
:100080000000250028002B000500893008023802F6
:100090004978681400000500380168010000175312
:1000A00044001613780016131400151020001520B4
:1000B0001000540A03E181867F3E186D830F0F0EF6
:1000C0000183866033186DC3198F1803C38E6033A4
:1000D000186DE330CF1803C39E603630CDE360CF98
:1000E0003006C79E7E3E30CDB360CF300CC6F66082
:1000F0003330D9B660CF33CFCCF66061B0DB1E6051
:10010000CF30D86CE6C061B0DB1E618F19986CC629
:10011000C063B19B0E330F0FB078C6FF7E1F1B0666
:100120001E0F53616E6474726973000A0A153A49AE
:10013000676E6F7265006D560A0A504C4541534513
:10014000205455524E204F464620004C4F572042D7
:1001500041545445525921200003053F213F1208C4
:10016000120A100A0E1C0E0C1E0C141A14161F165E
:100170001E131E1E1B1E1E1F1E3F213F3A2F3A1725
:100180003D173F213F181F02040A041F0E04040EEE
:100190001F0A1F0A0E0E1F04110E2E252E2F2A2EA7
:1001A000262929021F02081F08150E04040E150E29
:1001B00015151B151B040604040C04000000001791
:1001C000000300031F0A1F16371A1904130A153AF1
:1001D000000300000E11110E000A040A040E0400B0
:1001E00030000404040010001804031F111F121F24
:1001F000101D151711151F07041F17151D1F151D9D
:1002000001011F1F151F17151F000A0000320004EF
:100210000A110A0A0A110A040115020E11171E0515
:100220001E1F150A0E110A1F110E1F15111F0501A1
:100230000E111D1F041F111F1108100F1F041B1F7B
:1002400010101F061F1E040F0E110E1F09060E119F
:100250002E1F051A121509011F011F101F0F180F5D
:100260001F0C1F1B041B031C03191513001F110374
:100270000418111F000201022020200001020C12AC
:100280001E1F120C0C12120C121F0C1A14041E0545
:10029000242A1E1F021C141D1020201D1F081411CB
:1002A0001F101E041E1E021C0C120C3E0A040C120F
:1002B0003E1E040214160A020F120E101E0E100E1D
:1002C0001E081E120C1226281E322A26041E210089
:1002D0001F00211E040102013F213FF6E8DBCFC3CE
:1002E000B8AEA49B928A827B746E68625C57524E51
:1002F0004945413E3A3734312E2C292725232145C3
:100300000068010000172B152010204C4F41444578
:100310005200172B16201314000A4E6F205344204E
:1003200063617264206F720A6E6F204C4F414445C6
:10033000522E4845580A0A153A45786974001D201E
:10034000466C617368696E670A20206C6F61646532
:10035000722E2E2E0A0A444F4E2754205455524EC8
:10036000204F4646210000000000230026002900FF
:10037000040404040404040402020202020203034B
:100380000303030301020408102040800102040853
:1003900010200102040810200000000800020100E3
:1003A000000304070000000000000000DB1211241D
:1003B0001FBECFEFD8E0DEBFCDBF11E0A0E0B1E0BF
:1003C000EAECFBE202C005900D92A032B107D9F72A
:1003D00024E0A0E2B1E001C01D92A33DB207E1F725
:1003E00011E0C7EDD1E004C02197FE010E94C915BC
:1003F000C63DD107C9F70E94380E0C94E3150C9442
:100400000000ECE4F4E014AE12AE109295041092E9
:10041000940415AE10924B0210924A0210924902B7
:100420001092B4000895CF93DF93E0917A048E2F59
:1004300090E0880F991FE0917804F0917904E80F1B
:10044000F91F859194918F3F980729F410927104B8
:10045000DF91CF91089590937D049927880F991F7C
:10046000E0917B04F0917C04E80FF91FC591D491D1
:100470000E940102D0937F04C0937E0410928404F2
:100480001092830481E08093720489E08093870452
:1004900010928A0410928C0410928E0480917A0437
:1004A0008F5F80937A04D4CF90E0880F991FE091FA
:1004B0008004F0918104E80FF91F25913491309365
:1004C000910420939004F901859194919091750481
:1004D000989F802D112480939204F9016591749165
:1004E000472F50E08417150629F020F0F9012591D7
:1004F0003491832F989F802D112480939304089525
:10050000AF92BF92CF92DF92EF92FF920F931F9321
:10051000CF93DF936C017B018B01040F151FEB015F
:100520005E01AE18BF08C017D10759F06991D60116
:10053000ED91FC910190F081E02DC6010995892B88
:1005400079F7C501DF91CF911F910F91FF90EF9047
:10055000DF90CF90BF90AF900895833081F028F462
:10056000813099F08230A9F008958730A9F0883061
:10057000C9F08430B1F4809180008F7D03C08091F8
:1005800080008F7780938000089584B58F7784BD35
:10059000089584B58F7DFBCF8091B0008F778093D5
:1005A000B00008958091B0008F7DF9CF1F93CF9355
:1005B000DF93282F30E0F901E856FC4F8491F901D0
:1005C000EC57FC4FD491F901E059FC4FC491CC2376
:1005D000A9F0162F81110E94AD02EC2FF0E0EE0F72
:1005E000FF1FE258FF4FA591B4918FB7F894EC919B
:1005F000111108C0D095DE23DC938FBFDF91CF911E
:100600001F910895DE2BF8CFCF93C82FF89460E0A8
:100610008091A9040E94D6028091AA0418161CF4A5
:1006200060E00E94D602CEBD00000DB407FEFDCFF3
:100630008EB58091AA0418161CF461E00E94D602BF
:100640007894CF9108950F931F93CF938091A60430
:100650008F5F8093A6040CE412E0C0E08C2F8064CE
:100660000E94040380E80E94040361E08091A904D1
:100670000E94D6028091AA0418161CF460E00E9421
:10068000D602F80184E591919EBD00000DB407FEED
:10069000FDCF9EB58150B9F78091AA0418161CF4BD
:1006A00061E00E94D602CF5F0C5A1F4FC630B1F6F0
:1006B00080E4CF911F910F910C940403CF93DF93AB
:1006C00090E0FC01EC57FC4F249180599C4FFC01B9
:1006D00084918823C9F090E0880F991FFC01EC58A1
:1006E000FF4FA591B491FC01E258FF4FC591D49101
:1006F00061110DC09FB7F8948C91209582238C9343
:100700008881282328839FBFDF91CF91089562308D
:1007100051F49FB7F8943C91822F809583238C935A
:10072000E8812E2BEFCF8FB7F894EC912E2B2C93E2
:100730008FBFEACFFF920F931F93CF93DF93CCE449
:10074000D4E0FF24FA9462E08A850E945E032A8541
:1007500030E0F901E856FC4F8491F901EC57FC4F69
:100760000491F901E059FC4F14911123E1F081113A
:100770000E94AD02E12FF0E0EE0FFF1FEA59FC4F9F
:10078000A591B491EC9189890E2369F0811113C070
:10079000219684E0C335D807B1F6DF91CF911F9140
:1007A0000F91FF90089589898F5F898B60E08A851A
:1007B0000E945E03EDCF8F3F11F4198AF7CFF98ABB
:1007C000F5CF1F93CF93DF93182FEB0161E00E94C9
:1007D0005E03209739F460E0812FDF91CF911F9164
:1007E0000C94D602CF3FD10511F461E0F5CFE12F93
:1007F000F0E0E856FC4FE491E33031F140F4E130B1
:10080000B1F0E230E1F0C038D1057CF7E4CFE73059
:1008100029F1E83059F1E430B1F78091800080622D
:1008200080938000D0938B00C0938A0004C084B56D
:10083000806884BDC7BDDF91CF911F91089584B5B5
:10084000806284BDC8BDF7CF8091800080688093AE
:100850008000D0938900C0938800EDCF8091B000D4
:1008600080688093B000C093B300E5CF8091B00062
:1008700080628093B000C093B400DDCF8E5080645E
:1008800080937C0080917A00806480937A008091CC
:100890007A0086FDFCCF80917800909179000895D0
:1008A000809170048F7149F584E10E943E04BC017F
:1008B000990F880B990B0E94A01426EE3FE34EEC93
:1008C00050E40E9404150E946F149B01709367040A
:1008D00060936604672BB9F084E080936504E8E6D2
:1008E000F4E080E0419151912417350718F480938A
:1008F000650408958F5F8430A9F7809170048F5F3D
:100900008093700408958FEF80936504F6CF3FB70E
:10091000F8948091220190912301A0912401B0913B
:10092000250126B5A89B05C02F3F19F00196A11DF2
:10093000B11D3FBFBA2FA92F982F8827BC01CD0129
:10094000620F711D811D911D42E0660F771F881F88
:10095000991F4A95D1F708958F929F92AF92BF92B7
:10096000CF92DF92EF92FF924B015C010E948704CD
:100970006B017C010E9487046C197D098E099F0917
:10098000683E734081059105A8F321E0821A910821
:10099000A108B10888EEC80E83E0D81EE11CF11C46
:1009A00081149104A104B10429F7FF90EF90DF9026
:1009B000CF90BF90AF909F908F900895DC016435E9
:1009C00070F5403360F590968C919097E62F062E47
:1009D000000CFF0B242F25952595259594E52902DC
:1009E000E00DF11D1124E45BFD4F2081342F3770A1
:1009F0008230B1F4822F90E0032E02C09595879546
:100A00000A94E2F780958170811114C081E090E032
:100A100001C0880F3A95EAF7809582238083089574
:100A2000833091F71C968C9181706427609561707A
:100A30008613ECCF81E090E001C0880F3A95EAF789
:100A4000822BECCFAF92BF92CF92DF92EF92FF92C8
:100A50000F931F93CF93DF93182F062FC0E0D3E09F
:100A60008AEFD82E9EEFE92E842F8470C82E842F13
:100A70008270B82E842F8870A82E4170F42ECF5F1C
:100A80008C2F880F8F5FE80ECC2081F0402F4D0F08
:100A9000612F6C0F8AE994E00E94DE04402F4C0F16
:100AA0006D2F610F8AE994E00E94DE04BB2081F083
:100AB000402F4D1B612F6C0F8AE994E00E94DE04E9
:100AC000402F4C1B6D2F610F8AE994E00E94DE04D9
:100AD000AA2081F0402F4C0F612F6D1B8AE994E012
:100AE0000E94DE04402F4D0F612F6C1B8AE994E0B9
:100AF0000E94DE04FF2081F0402F4C1B612F6D1BF4
:100B00008AE994E00E94DE04402F4D1B612F6C1B8C
:100B10008AE994E00E94DE04CD173CF4E7FCAFCFF5
:100B2000D150D394D394ED0CAACFDF91CF911F91E4
:100B30000F91FF90EF90DF90CF90BF90AF9008950E
:100B4000EF92FF920F931F93CF93DF938C01F62EBA
:100B5000D42FE22EC0E0CE1544F46F2D6C0F4D2F34
:100B6000C8010E94DE04CF5FF6CFDF91CF911F91C5
:100B70000F91FF90EF9008952F923F924F925F92C6
:100B80006F927F928F929F92AF92BF92CF92DF929D
:100B9000EF92FF920F931F93CF93DF9300D000D07B
:100BA000CDB7DEB79C838B836A3099F4DC0118964D
:100BB0002C91189715969C9115971A968C911A97C7
:100BC000299F800D11241A968C931A9719961C92BE
:100BD000F0C06D3009F4EDC0EB81FC815184F3E588
:100BE000F5150CF4C3C0AB81BC811A96FC90BFE232
:100BF000BF150CF4BBC0EB81FC8110852481215012
:100C0000330B129FC001139F900D1124850D911D70
:100C100057FC9A95181619060CF0A8C025818F2D3F
:100C20000F2C000C990B129F800D911D112418168A
:100C300019060CF09BC0F0A1F983752C612C262EAF
:100C4000312CA12E012E000CBB08E62D062C000C29
:100C5000FF0BAB81BC8114968C91149790E0E81740
:100C6000F9070CF07EC00197E817F907A1F1289E5B
:100C70006001299ED00C389ED00C1124CE0EDF1EB0
:100C80005E96ED91FC91EC0DFD1DE4910F2DE12C94
:100C9000B62DB50DBA83AB81BC8115962C911597F5
:100CA0008E2D0E2C000C990B2817190609F00CF448
:100CB00055C0CE2ED12CE0FF26C0113071F44E2D40
:100CC0004F0D6A81CD010E94DE04F601F595E7958E
:100CD000E394010FE0CFE0E0D9CF402E4501800E34
:100CE000911C07FD9A94842D042C000C990B8815F7
:100CF00099055CF7212F442D672D8B819C810E94E3
:100D0000A0054394F0CFEB81FC8181A190A18917CC
:100D1000E1F280A3113061F44E2D4F0D6A81CF01B5
:100D20000E94DE04E981AB81BC819096EC93CDCF2B
:100D3000402E4501800E911C07FD9A94842D042CB1
:100D4000000C990B881599056CF7212F442D672D00
:100D50008B819C810E94A0054394F0CF6394710E17
:100D600074CFE981AB81BC819096EC93AB81BC815F
:100D700018962C91189714963C91149719968C916B
:100D80001997239F800D112419968C931997179604
:100D90009C911797992369F0082E000C990B44E554
:100DA00050E0239F401951091124481759070CF4AA
:100DB00001CF81E090E00F900F900F900F90DF91A6
:100DC000CF911F910F91FF90EF90DF90CF90BF9048
:100DD000AF909F908F907F906F905F904F903F90DB
:100DE0002F900895682F8AE994E00C94BC050F9326
:100DF0001F93CF93DF938C01D0E0C0E0F801EC0F9C
:100E0000FD1F6491662341F08AE994E00E94BC05CD
:100E1000892B11F02196F2CFCE01DF91CF911F9156
:100E20000F910895EF92FF920F931F93CF93DF934B
:100E30008C01D62FF42EE22EC0E0CE1544F44F2DB7
:100E40004C0F6D2FC8010E94DE04CF5FF6CFDF91FB
:100E5000CF911F910F91FF90EF9008958F929F92E5
:100E6000AF92BF92CF92DF92EF92FF920F931F93B8
:100E7000CF93DF93082FB62E942EA22E83E0F82E68
:100E8000D0E0C3E09AEFE92E1EEFCC24C394C20E4B
:100E9000DF5F1F0D2C2F220F4B2D4C1B8A2C8F0C2C
:100EA000DB2CDD1A81E02C0D602F981218C06D0F1D
:100EB0008AE994E00E941207282D4D2D6C2F600FB7
:100EC0008AE994E00E941207DC179CF417FD04C025
:100ED000C150E394E3941E0DF394F394D9CF6D1BAA
:100EE0008AE994E00E941207282D4D2D602F6C1B7B
:100EF000E7CFDF91CF911F910F91FF90EF90DF909F
:100F0000CF90BF90AF909F908F9008950F931F93B5
:100F1000CF93DF930196EC01CC0FDD1F6F5F7F4F06
:100F20008B01000F111F22E0402F6C2F8AE994E003
:100F30000E94A00541E0400F22E06C2F8AE994E076
:100F40000E94A00522E0402F6C2F8AE994E00E94C5
:100F500012076C2F6F5F22E0402F8AE994E0DF9147
:100F6000CF911F910F910C941207089590E080E0AB
:100F70000895FC0101900020E9F73197AF01481B6B
:100F8000590BBC018AE994E00C9480028F929F92E5
:100F9000AF92BF920F931F93CF93DF93CDB7DEB77E
:100FA000A1970FB6F894DEBF0FBECDBF19A2423095
:100FB00008F44AE08E010F5D1F4F842E912CB12C56
:100FC000A12CA50194010E943E14E62FB901CA018B
:100FD000EA30F4F4E05DD801EE938D01232B242B4D
:100FE000252B79F790E080E0109719F0CD010E9451
:100FF000B907A1960FB6F894DEBF0FBECDBFDF9143
:10100000CF911F910F91BF90AF909F908F900895B7
:10101000E95CE1CFCF93DF930E94F706EC0185E115
:1010200091E00E94B9078C0F9D1FDF91CF91089529
:10103000ECE4F2E088EF91E0DF019C011D92215089
:101040003040E1F71092A3041092A4048EE393E0E1
:101050000E94F7060E9423038CB583608CBD8DB57A
:101060008E7F8DBD88E191E0EEEFFFE30995109250
:10107000A00489E193E00E940A080E9423030E94D1
:101080009A0380916104813039F062E370E080E07E
:1010900090E00E94AC04F3CF08954F925F926F925C
:1010A0007F928F929F92AF92BF92CF92DF92EF92F8
:1010B000FF920F931F93CF93DF9300D000D01F9226
:1010C000CDB7DEB74091CC045091CD046091CE04F1
:1010D0007091CF042FB7F894809145029091460209
:1010E000A0914702B09148022FBF481B590B6A0BD1
:1010F0007B0B8091CB0490E0B0E0A0E00091C704AE
:101100001091C8042091C9043091CA04841795072E
:10111000A607B70708F0CEC0011511052105310556
:1011200009F4C8C02FB7F894809145029091460207
:10113000A0914702B09148022FBF2091CB04820FAB
:10114000911DA11DB11D8093CC049093CD04A0935B
:10115000CE04B093CF048091BD049091BE04A091C1
:10116000BF04B091C0040196A11DB11D8093BD04C0
:101170009093BE04A093BF04B093C0041092C70420
:101180001092C8041092C9041092CA040E948704E5
:101190006093C3047093C4048093C5049093C60401
:1011A00080914D0490914E042FE0289FA001299F2B
:1011B000500D11245A83498385E10E943E04A98180
:1011C000BA818A0F9B1FB4E096958795BA95E1F78F
:1011D00090934E0480934D0420914C04222309F4F3
:1011E00048C060915004262F30E050E040E0298351
:1011F0003A834B835C83C0905104D12CF12CE12CB9
:1012000040915404509155044A01B12CA12C2091D5
:101210005204309153042901712C612C82179307D9
:1012200028F09C014817590708F49A0150E040E063
:10123000241935094609570969817A818B819C8176
:101240006C197D098E099F090E949915A5019401C9
:1012500024193509460957090E940C14C20ED31EE1
:10126000E41EF51EC0924F046C2D70E085E00E94D4
:10127000E1030E949A038091680490916904892B8C
:1012800011F00E94500481E00F900F900F900F908A
:101290000F90DF91CF911F910F91FF90EF90DF9012
:1012A000CF90BF90AF909F908F907F906F905F9006
:1012B0004F900895012B022B032B09F0E6C2809179
:1012C000630481508E3FB8F580916204813099F5B6
:1012D000809176048F5F6091770487FD09C0082EA6
:1012E000000C990B70E06F5F7F4F0E94B515682F5F
:1012F0006093760482E193E09093D1048093D004CC
:1013000088E48093D2040E9401028FEF92E09093D0
:101310007F0480937E04109284041092830481E001
:101320008093720489E08093870410928A0410925B
:101330008C0410928E048091630481508E3F70F46F
:1013400080916104813009F021C385E093E090939E
:10135000D1048093D00488E48093D20480917104F6
:10136000882331F080917204811102C00E9413021F
:1013700080917204882309F43EC080918604811113
:101380003AC080917E0490917F04E0918304F091B3
:101390008404EE0FFF1FE80FF91F259134912115EA
:1013A000310509F4BBC0A901569547955695479557
:1013B000842F20FD5EC08F73809385048091750417
:1013C000839F802D1124809386041092960410929E
:1013D00095041092940481E08093880480934902DC
:1013E00010928904809183049091840401969093D3
:1013F00084048093830480918804882331F0809151
:1014000086048111A5C00E9401028091D204882324
:1014100009F4F2C18C3008F082C13CE0381B3983FA
:1014200081E08093A2041092BA041092BB04409110
:101430009F044D8393E0E92EE40E1981141B0DE205
:10144000010F0E2C000CFF08E00EF11C07FDFA94B2
:10145000802F002E000C990B8E159F050CF061C19A
:101460002EE4402F63E08AE994E00E94A0050F5F1C
:10147000EFCFC901E6E096958795EA95E1F78F7180
:10148000932F96959695969590514F70423099F17D
:10149000D0F4442309F43CC04130B9F1E091830415
:1014A000F09184043196F0938404E0938304CF0197
:1014B000880F991FE0917E04F0917F04E80FF91FD7
:1014C0002591349170CF433061F0443039F7209149
:1014D0007504289F802D112480938E0490938F048F
:1014E000DDCF20917504289F802D112480938C04DA
:1014F00090938D04D3CF20917504289F802D1124C3
:1015000080938A0490938B04C9CF0E945402C6CF63
:101510008B3008F08AE080938704C0CF209182044A
:10152000211110C01092720480917104811103C0C6
:101530000E94010260CF0E94130280918304909167
:101540008404B6CF1092840410928304FC01B8CFB7
:1015500081508093860480919604811142C020912D
:101560009404309195042F5F3F4FC901880F991F54
:10157000E0919004F0919104E80FF91F8591949106
:10158000482F477040939704492F469546954093BE
:101590009804AC0164E0569547956A95E1F74F735E
:1015A00090917504499F402D11244093960483FB2C
:1015B000882780F980934402309395042093940403
:1015C0008091920490E02817390758F020919304F5
:1015D000222309F49EC0821B910990939504809365
:1015E000940480919604815080939604809189049C
:1015F00031E0380F3093890440918504209198049C
:10160000240F80917D04280F2093730460918C0433
:10161000662371F070E0832F032E000C990B0E945B
:10162000B51580918D04869F200D1124209373049D
:101630008091730490E0849664E270E00E94B51596
:1016400080937304209187042093740460918A042A
:10165000662381F0062E000C770B832F032E000CDF
:10166000990B0E94B51580918B04869F200D112443
:101670002093740460918E046623A1F0832F330FAE
:10168000990B70E00E94B515CB0162E070E00E94FA
:10169000B51520918F0490917404289F900D11240A
:1016A000909374044F33C1F1809174048A300CF02C
:1016B00089E087FD80E080937404F894E0917304DE
:1016C000F0E0E552FD4FE491E0934302209199044C
:1016D0003091740432039001112440919704420325
:1016E000C001439F900D11242091760402C0880F01
:1016F000991F2A95E2F797FF02C081589F4F880FE4
:10170000892F881F990B80934A0280934B0278940B
:101710007CCE0E94010265CF10927404CECF198254
:101720007FCE5D8154505D83105D252F41E0612F98
:1017300080E50E942E072D8142E0612F83E00E9408
:101740002E0781E08093BA048093BB0400919F042C
:101750001981101B8DE2F82EF10E2EE44F2D63E05F
:101760008AE994E00E94A00583E0800F8F0D8D83AD
:10177000482F41502EE463E08AE994E00E94A005DE
:101780000350105D202F412F60E08AE994E00E9411
:101790001207202F412F63E58AE994E00E94120787
:1017A00041E0612F83E00E94220542E0612F80E545
:1017B0000E9422059D8194509D8344E0692F80E51D
:1017C0000E94220548E06D8183E00E94220584E0AA
:1017D0008093A30480919F04A981A81BA15DA0937D
:1017E000A4048091D0049091D1040E94F7068091C6
:1017F000D20481508093D20480916804909169044E
:10180000892BD9F0B1E0B093BA041092BB04909147
:101810009E0485E5891B8093A3041092A404809103
:101820006504813009F497C090F19091640485308B
:1018300008F0A7C08B5F91119FC00E942303809185
:10184000A00481110EC0ECE4F2E088EF91E0DF012A
:101850009C011D9221503040E1F71092A304109298
:10186000A4040E9487046093C7047093C804809303
:10187000C9049093CA042091C3043091C404621B2C
:10188000730B7093C2046093C10480E0FDCC0E948E
:1018900001021092720421E02093A204E9E5F1E034
:1018A000E491EF5FE0939E04EAE5F1E0E491EF5FFD
:1018B000E0939F048BE591E09093B9048093B80482
:1018C00010926904109268041092A00438EA3983D7
:1018D0000E944D088823E1F38BE491E00E94F70613
:1018E000609166047091670490E080E04AE00E9495
:1018F000C60786E391E00E94F706698162956F70E2
:1019000070E090E080E04AE00E94C6078BE291E040
:101910000E94F70680916104813009F48ECF4981DD
:10192000415049834111D4CF70E060E085E00E94CE
:10193000E10383B7817F846083BF83B7816083BF06
:1019400083B7816083BF889583B78E7F83BF83B75A
:101950008E7F83BFBDCF8091BD049091BE04A091C6
:10196000BF04B091C0048F709927AA27BB2708979E
:10197000A105B10520F487E00E94F2065ECF88E75A
:10198000FBCF992309F459CF8FE2F6CF893209F0C2
:10199000E5CC0E941808E2CC5F926F927F928F9202
:1019A0009F92AF92BF92CF92DF92EF92FF920F93EE
:1019B0001F93CF93DF93E7E2F1E040E056E1752E0D
:1019C0006624639454805520C9F04081518122815E
:1019D0003381B9016F5F7F4F749EC001759E900D7A
:1019E0001124855C9E4FDC01A60FB71F4C91442348
:1019F00009F1820F931FDC016C9214823596B1E0DD
:101A0000EB33FB07F9F6411154C00E94581367E00D
:101A100070E00E94B5158730910500F5FC01ED5E80
:101A2000F24F0C94C9151E0D690D7A0D830D890DA9
:101A30008F0DA00D73836283452DE0CF01E010E090
:101A400087E0E82EF12CCC24C394D12CD6E0C0E062
:101A500025E0822E912C34E0A32EB12CB0922801E7
:101A6000A092270121E030E030932A012093290140
:101A700081E080932B0180922C0190922D01309374
:101A80002F0120932E0180933001D0933101C09318
:101A90003201D0923401C092330180933501F0922B
:101AA0003701E09236010093380110933901809399
:101AB0003A01DF91CF911F910F91FF90EF90DF904E
:101AC000CF90BF90AF909F908F907F906F905F90DE
:101AD000089502E010E0C6E0EC2EF12CD2E0CD2E0D
:101AE000D12CD5E0C0E0F6E08F2E912C85E0A82E19
:101AF000B12CB4CF8C01B6E0EB2EF12CCC24C394E6
:101B0000D12CD7E0EFCF02E010E0E5E0EE2EF12C93
:101B1000F5CF02E010E077E0E72EF12CEFCFD82FE1
:101B2000C92F02E010E036E0E32EF12C42E0C42E93
:101B3000D12C57E0852E912C66E0A62EB12C8ECFAD
:101B4000D82FC92F882E992E02E010E097E0E92EB9
:101B5000F12C22E0C22ED12CC9CF1F920F920FB6CA
:101B60000F9211242F933F938F939F93AF93BF9323
:101B70008091450290914602A0914702B09148029F
:101B80003091210123E0230F2D3758F50196A11D37
:101B9000B11D209321018093450290934602A093AA
:101BA0004702B09348028091220190912301A091B5
:101BB0002401B09125010196A11DB11D8093220140
:101BC00090932301A0932401B0932501BF91AF917D
:101BD0009F918F913F912F910F900FBE0F901F906B
:101BE000189526E8230F0296A11DB11DD2CF1F9292
:101BF0000F920FB60F9211242F936F937F938F93B1
:101C00009F9360914A02662349F1809120018F5F82
:101C10008093200190914302891700F1209149029D
:101C200081E02827209349021092200180914402EC
:101C3000882369F08091000193E4899F802D11240D
:101C4000895B809300010E94A91590934B028091BB
:101C50004B02211101C080E08093B4009F918F91CD
:101C60007F916F912F910F900FBE0F901F9018953D
:101C7000789484B5826084BD84B5816084BD85B567
:101C8000826085BD85B5816085BD80916E00816073
:101C900080936E0010928100809181008260809319
:101CA000810080918100816080938100809180001B
:101CB0008160809380008091B10084608093B10046
:101CC0008091B00081608093B00080917A00846040
:101CD00080937A0080917A00826080937A0080916C
:101CE0007A00816080937A0080917A008068809386
:101CF0007A001092C10082E38093CB0481E090E0EF
:101D0000A0E0B0E08093C7049093C804A093C904F6
:101D1000B093CA048FEF8093BC04E0E8F7E7259105
:101D200034912130304C09F071C2E6E9F7E7E491D3
:101D3000E093A504E7E9F7E7E491E0935004E8E9CC
:101D4000F7E7E491E0935104E9E9F7E7859194918D
:101D50009093530480935204EBE9F7E785919491B3
:101D6000909355048093540487E080937704EEE9C0
:101D7000F7E7E491E0937604EFE9F7E7E491E09385
:101D8000BC04E0EAF7E7859194919093690480930D
:101D90006804E2EAF7E78591949190936B0480934D
:101DA0006A04E4EAF7E78591949190936D04809337
:101DB0006C04E6EAF7E78591949190936F04809321
:101DC0006E04C1E0C0934C046FEF70E085E00E94A8
:101DD000E10388E08093560489E08093570487E00C
:101DE0008093580486E080935904D4E0D0935A0439
:101DF00082E080935B0481E180935C040E949A03FB
:101E00008CE39FE09093670480936604D09365040D
:101E1000C09370048BE08093A8048DE08093A704A6
:101E200080E18093A9048EE08093AB048FE08093DF
:101E3000AA04C093A204C093BA041092BB04C09336
:101E4000A104E9E5F1E0E491EF5FE0939E04EAE5A7
:101E5000F1E0E491EF5FE0939F048BE591E09093D4
:101E6000B9048093B804CFB7F8948091260181110A
:101E700027C0EAE7F3E08491EEE8F3E09491E82FDD
:101E8000F0E0EE0FFF1FEC58FF4FA591B491EC91DD
:101E9000E92321F461E08AE00E94D60261E08AE051
:101EA0000E945E038CB580618CBD8CB580648CBD56
:101EB00061E08DE00E945E0361E08BE00E945E03C2
:101EC000809126018F5F80932601CFBF8CB58F7DD7
:101ED0008CBD8CB58C7F81608CBD8DB581608DBDD6
:101EE0008CB58C608CBD61E08091A8040E945E037B
:101EF00061E08091A7040E945E0361E08091A904E3
:101F00000E945E038091AB0418161CF461E00E94ED
:101F10005E038091AA0418161CF461E00E945E031F
:101F20008091AB04181674F460E00E94D6026AE057
:101F300070E080E090E00E94AC0461E08091AB042E
:101F40000E94D6028091A704082E000C990BFC0178
:101F5000E059FC4FE491F0E0EE0FFF1FE258FF4F15
:101F6000259134913093AF042093AE04FC01EC57DB
:101F7000FC4FE491E093B5048091A804082E000C76
:101F8000990BFC01E059FC4FE491F0E0EE0FFF1FCC
:101F9000E258FF4F259134913093AD042093AC0467
:101FA000FC01EC57FC4FE491E093B4048091AA0447
:101FB000082E000C990BFC01E059FC4FE491F0E075
:101FC000EE0FFF1FE258FF4F259134913093B1047B
:101FD0002093B004FC01EC57FC4FE491E093B6046D
:101FE0008091A904082E000C990BFC01E059FC4FCC
:101FF000E491F0E0EE0FFF1FE258FF4F259134917E
:102000003093B3042093B204FC01EC57FC4FE491ED
:10201000E093B70481E20E94040384E10E94040378
:102020008091A50487FF03C08FE78093A50480916A
:10203000A50480680E94040380E20E9404038CE0EF
:102040000E9404030E94230381E08093750484E0CE
:102050008093990480E790E09093810480938004BA
:1020600080E00E94540261E070E083E00E94E1039E
:102070008091B100887F81608093B100F8941092C4
:10208000800010928100109285001092840088E1F7
:1020900091E090938900809388008091810088600E
:1020A0008093810080918100816080938100809184
:1020B0006F00826080936F007894809168049091A3
:1020C0006904892B11F00E945004809162048130D0
:1020D00009F4C9C080916504882309F4C4C00E9432
:1020E000010288E890E090937F0480937E04109230
:1020F00084041092830481E08093720489E08093C9
:10210000870410928A0410928C0410928E0480919D
:10211000BC04882309F4BAC181E08093A204109220
:10212000A1041092A004109264048093BA048093D6
:10213000BB04C1E0D1E03FEF832E32E0932E1CE0E0
:1021400009E00E944D088823E1F3E2E2F1E0849186
:10215000E2EBF0E08491E3EBF0E0C4907091BA041C
:10216000082E000C990B5C01F7E0AF0EB11CB7FE16
:1021700004C05C012EE0A20EB11C23E0B594A7942C
:102180002A95E1F7181619060CF0C3C01C140CF0C0
:10219000C0C0EC2DE1330CF0E0E38535910514F07F
:1021A00084E590E0F090A60460E02CE432E091E059
:1021B00044EB50E0CE2EEE0FDD08BB246C151D0461
:1021C0000CF0A7C0FA01E490713009F04FC0D901BA
:1021D0006894772477F8672C6E2019F06C90692A40
:1021E0006C92769429F43196E4906894772477F889
:1021F00011966A2E621A681670F3990F19F42C5A08
:102200003F4F91E06F5F4A0D5B1DD8CF9CE39093E9
:10221000A504109250048093510480E293E09093BF
:1022200053048093520484ED93E09093550480937B
:10223000540487E080937704809376048CEA9DE0D1
:1022400090936904809368048EED9DE090936B04F5
:1022500080936A0484E79EE090936D0480936C04FD
:102260008CE39FE0AACD1092760451CF711119C072
:10227000692E6094D9016894772477F8572C5E20F2
:1022800019F05C9056205C92769429F43196E49093
:102290006894772477F811965A2E521A581670F3CC
:1022A000ACCFD9016894772477F87330F9F4492ECC
:1022B00040946894662467F8512C762C7E2039F07F
:1022C0007C90352C3F2430FE0FC0792A7C92669496
:1022D00029F43196E4906894662467F85394119633
:1022E000581658F3FC2689CF7420F0CF6E2C672047
:1022F00019F06C9069266C92769429F43196E490EA
:102300006894772477F811966A2E621A681670F32B
:1023100074CF1092A3041093A40482E291E00E946F
:10232000F70680919E04982F990F990F891B8D5A5B
:102330008093A30480919F04982F990F990F891B74
:10234000835D8093A4048091BD0484FF78C08EEAED
:1023500090E00E940A0880919E04982F990F990F8F
:10236000891B8D5A8093A3048091A4048F5F80936E
:10237000A40480917604882309F464C086EA90E07E
:102380000E940A0880919E04982F990F990F891B2B
:102390008D5A8093A3048091A4048F5F8093A4043A
:1023A0008EE990E00E940A0880916204813031F544
:1023B000809176048F5F6091770487FD09C0082EB5
:1023C000000C990B70E06F5F7F4F0E94B515682F6E
:1023D000609376040E94010290927F0480927E04B2
:1023E0001092840410928304D093720400938704A3
:1023F00010928A0410928C0410928E0480916104D1
:10240000813019F18091BC04482F50E070E060E009
:10241000C090BD04D090BE04E090BF04F090C00412
:10242000C416D506E606F70610F08F3F71F48091CA
:102430006304813009F085CE0E94180880CE8AEAB4
:1024400090E087CF82EA90E09BCF8FEF8093BC042F
:102450000E940102109272040E94010286E990E03B
:1024600090937F0480937E041092840410928304DE
:1024700081E08093720499E09093870410928A041B
:1024800010928C0410928E0480936404C0906604B1
:10249000D0906704C094D094F12CE12C0E94870462
:1024A0004B015C010E948704A501940120953095A1
:1024B0004095509560957095809590950E949915DE
:1024C0009B01AC01C701B6010E9499154B015C014B
:1024D000C0904D04D0904E04F12CE12C0E94870452
:1024E0006C0D7D1D8E1D9F1D680D791D8A1D9B1D08
:1024F000611571058105910511F00E940314109278
:10250000640494E1492E512C612C712C2BE3C22ED2
:1025100021E0D22E30E0A32E30E0B32E0E944D08F1
:10252000882309F441C06091BD047091BE0480917C
:10253000BF049091C004A30192010E943E14672B36
:10254000682B692B11F40E94CC0C0E94CC0CC7E2C2
:10255000D1E08C81882331F06A817B8188819981E7
:102560000E9486072596CC16DD0699F78BE3E82EA8
:1025700081E0F82E10E000E0D0E0C0E0F701EC0FC1
:10258000FD1F8081882321F0BE01C8010E948607BB
:102590002196C631D10591F70F5F1F4FF6E1EF0E7F
:1025A000F11C0C30110541F7A114B10409F4B6CFA8
:1025B0000E940000B3CF10929D0410929C048DE005
:1025C00091E090939B0480939A0488E091E0EBE380
:1025D000F1E0DF019C011D9221503040E1F781E0E4
:1025E0008083858B769632E0E334F307C9F7ECE31A
:1025F000F1E081E08193DF01AF50BF4F8C9391E018
:10260000E035F907B9F710922B01109230011092C2
:10261000350110923A0108958F929F92AF92BF9226
:10262000CF92DF92EF92FF92CF93DF93EC0168811C
:1026300079818A819B81611571058105910521F45C
:1026400064E279ED8BE597E02DE133EF41E050E076
:102650000E940C1449015A019B01AC01A7EAB1E4A4
:102660000E942B146B017C01ACEEB4EFA501940128
:102670000E943914DC01CB018C0D9D1DAE1DBF1DC8
:10268000B7FF03C00197A109B04888839983AA8343
:10269000BB839F77DF91CF91FF90EF90DF90CF903A
:1026A000BF90AF909F908F9008950E940C13089553
:1026B00081E091E00E940C130895B0E0A0E08093C7
:1026C000010190930201A0930301B09304010895C6
:1026D0008F929F92AF92BF92CF92DF92EF92FF9232
:1026E000CF93DF93EC01688179818A819B816115A9
:1026F00071058105910521F464E279ED8BE597E0A0
:102700002DE133EF41E050E00E940C1449015A01E1
:102710009B01AC01A7EAB1E40E942B146B017C0180
:10272000ACEEB4EFA50194010E943914C60ED71E79
:10273000E81EF91EF7FE06C081E0C81AD108E108BC
:1027400080E8F80AC882D982EA82FB82C701B60112
:102750009F77DF91CF91FF90EF90DF90CF90BF9068
:10276000AF909F908F9008958F929F92AF92BF925B
:10277000CF92DF92EF92FF92609105017091060176
:1027800080910701909108016115710581059105FE
:1027900021F464E279ED8BE597E02DE133EF41E040
:1027A00050E00E940C1449015A019B01AC01A7EAB8
:1027B000B1E40E942B146B017C01ACEEB4EFA501D7
:1027C00094010E943914C60ED71EE81EF91EF7FEAA
:1027D00006C081E0C81AD108E10880E8F80AC09272
:1027E0000501D0920601E0920701F0920801C701AD
:1027F000B6019F77FF90EF90DF90CF90BF90AF90A2
:102800009F908F90089560930501709306018093C7
:102810000701909308010895052E97FB1EF400947C
:102820000E94231457FD07D00E943E1407FC03D0DA
:102830004EF40C94231450954095309521953F4FBC
:102840004F4F5F4F089590958095709561957F4F9C
:102850008F4F9F4F08950E946014A59F900DB49FC5
:10286000900DA49F800D911D11240895B7FF0C9425
:102870002B140E942B14821B930B0895A1E21A2E95
:10288000AA1BBB1BFD010DC0AA1FBB1FEE1FFF1F14
:10289000A217B307E407F50720F0A21BB30BE40B64
:1028A000F50B661F771F881F991F1A9469F76095AB
:1028B0007095809590959B01AC01BD01CF01089565
:1028C000A29FB001B39FC001A39F700D811D112471
:1028D000911DB29F700D811D1124911D08950E94BC
:1028E000E31488F09F5798F0B92F9927B751B0F0AB
:1028F000E1F0660F771F881F991F1AF0BA95C9F784
:1029000014C0B13091F00E94FD14B1E008950C9410
:10291000FD14672F782F8827B85F39F0B93FCCF3C3
:10292000869577956795B395D9F73EF49095809500
:10293000709561957F4F8F4F9F4F0895E89409C020
:1029400097FB3EF490958095709561957F4F8F4FE2
:102950009F4F9923A9F0F92F96E9BB279395F695F8
:10296000879577956795B795F111F8CFFAF4BB0F76
:1029700011F460FF1BC06F5F7F4F8F4F9F4F16C0DA
:10298000882311F096E911C0772321F09EE8872F64
:10299000762F05C0662371F096E8862F70E060E020
:1029A0002AF09A95660F771F881FDAF7880F969599
:1029B000879597F9089557FD9058440F551F59F082
:1029C0005F3F71F04795880F97FB991F61F09F3F1C
:1029D00079F087950895121613061406551FF2CF45
:1029E0004695F1DF08C0161617061806991FF1CF95
:1029F00086957105610508940895E894BB276627BC
:102A00007727CB0197F908950E9417150C94881524
:102A10000E947A1538F00E94811520F0952311F05C
:102A20000C9471150C94771511240C94FE140E94CB
:102A3000DB1470F3959FC1F3950F50E0551F629F13
:102A4000F001729FBB27F00DB11D639FAA27F00D07
:102A5000B11DAA1F649F6627B00DA11D661F829F2E
:102A60002227B00DA11D621F739FB00DA11D621F13
:102A7000839FA00D611D221F749F3327A00D611D30
:102A8000231F849F600D211D822F762F6A2F112412
:102A90009F5750409AF0F1F088234AF0EE0FFF1F45
:102AA000BB1F661F771F881F91505040A9F79E3F9C
:102AB000510580F00C9471150C94FE145F3FE4F303
:102AC000983ED4F3869577956795B795F795E795F2
:102AD0009F5FC1F7FE2B880F911D9695879597F9FB
:102AE000089597F99F6780E870E060E008959FEF90
:102AF00080EC089500240A94161617061806090695
:102B0000089500240A941216130614060506089563
:102B1000092E0394000C11F4882352F0BB0F40F4EB
:102B2000BF2B11F460FF04C06F5F7F4F8F4F9F4F2B
:102B30000895DB018F939F930E942B14BF91AF9157
:102B4000A29F800D911DA39F900DB29F900D112407
:102B50000895991B79E004C0991F961708F0961BF9
:102B6000881F7A95C9F78095089597FB072E16F46C
:102B7000009407D077FD09D00E94CF1507FC05D03F
:102B80003EF4909581959F4F0895709561957F4F84
:102B90000895EE0FFF1F0590F491E02D0994AA1BF4
:102BA000BB1B51E107C0AA1FBB1FA617B70710F038
:102BB000A61BB70B881F991F5A95A9F7809590956A
:0A2BC000BC01CD010895F894FFCF89
:102BCA0001010000000100000000000000BC0580B7
:102BDA0002B607B5070D0A004C4F414445520000A2
:00000001FF
